{
  "_format": "hh-sol-artifact-1",
  "contractName": "PEPPERBIRD",
  "sourceName": "contracts/PepperbirdToken.sol",
  "abi": [
    {
      "inputs": [
        {
          "internalType": "address",
          "name": "router_",
          "type": "address"
        }
      ],
      "stateMutability": "payable",
      "type": "constructor"
    },
    {
      "inputs": [
        {
          "internalType": "address",
          "name": "transferAddress",
          "type": "address"
        }
      ],
      "name": "TransferAddressNotWhitelisted",
      "type": "error"
    },
    {
      "inputs": [
        {
          "internalType": "uint256",
          "name": "walletBalance",
          "type": "uint256"
        },
        {
          "internalType": "uint256",
          "name": "proposedWalletBalance",
          "type": "uint256"
        },
        {
          "internalType": "uint256",
          "name": "walletMaxBalance",
          "type": "uint256"
        }
      ],
      "name": "WalletLimitReached",
      "type": "error"
    },
    {
      "anonymous": false,
      "inputs": [
        {
          "indexed": true,
          "internalType": "address",
          "name": "owner",
          "type": "address"
        },
        {
          "indexed": true,
          "internalType": "address",
          "name": "spender",
          "type": "address"
        },
        {
          "indexed": false,
          "internalType": "uint256",
          "name": "value",
          "type": "uint256"
        }
      ],
      "name": "Approval",
      "type": "event"
    },
    {
      "anonymous": false,
      "inputs": [
        {
          "indexed": false,
          "internalType": "bool",
          "name": "enabled",
          "type": "bool"
        },
        {
          "indexed": false,
          "internalType": "uint256",
          "name": "cap",
          "type": "uint256"
        },
        {
          "indexed": false,
          "internalType": "uint256",
          "name": "amount",
          "type": "uint256"
        },
        {
          "indexed": false,
          "internalType": "uint256",
          "name": "period",
          "type": "uint256"
        }
      ],
      "name": "AutoBuyBackSettingsUpdated",
      "type": "event"
    },
    {
      "anonymous": false,
      "inputs": [
        {
          "indexed": false,
          "internalType": "uint256",
          "name": "amountBNB",
          "type": "uint256"
        },
        {
          "indexed": false,
          "internalType": "uint256",
          "name": "amountBOG",
          "type": "uint256"
        }
      ],
      "name": "AutoLiquify",
      "type": "event"
    },
    {
      "anonymous": false,
      "inputs": [
        {
          "indexed": false,
          "internalType": "uint256",
          "name": "numerator",
          "type": "uint256"
        },
        {
          "indexed": false,
          "internalType": "uint256",
          "name": "deonimator",
          "type": "uint256"
        },
        {
          "indexed": false,
          "internalType": "uint256",
          "name": "length",
          "type": "uint256"
        }
      ],
      "name": "BuyBackMultiplierSettingsUpdated",
      "type": "event"
    },
    {
      "anonymous": false,
      "inputs": [
        {
          "indexed": false,
          "internalType": "uint256",
          "name": "duration",
          "type": "uint256"
        }
      ],
      "name": "BuybackMultiplierActive",
      "type": "event"
    },
    {
      "anonymous": false,
      "inputs": [
        {
          "indexed": true,
          "internalType": "address",
          "name": "bepToken",
          "type": "address"
        },
        {
          "indexed": false,
          "internalType": "uint256",
          "name": "minPeriod",
          "type": "uint256"
        },
        {
          "indexed": false,
          "internalType": "uint256",
          "name": "minDistribution",
          "type": "uint256"
        }
      ],
      "name": "DistributionCriteriaUpdated",
      "type": "event"
    },
    {
      "anonymous": false,
      "inputs": [
        {
          "indexed": false,
          "internalType": "string",
          "name": "message",
          "type": "string"
        }
      ],
      "name": "Log",
      "type": "event"
    },
    {
      "anonymous": false,
      "inputs": [
        {
          "indexed": false,
          "internalType": "uint256",
          "name": "amount",
          "type": "uint256"
        }
      ],
      "name": "MaxNumberReflectionUpdated",
      "type": "event"
    },
    {
      "anonymous": false,
      "inputs": [
        {
          "indexed": false,
          "internalType": "address",
          "name": "owner",
          "type": "address"
        }
      ],
      "name": "OwnershipTransferred",
      "type": "event"
    },
    {
      "anonymous": false,
      "inputs": [
        {
          "indexed": false,
          "internalType": "bool",
          "name": "enabled",
          "type": "bool"
        },
        {
          "indexed": false,
          "internalType": "uint256",
          "name": "amount",
          "type": "uint256"
        }
      ],
      "name": "SwapBackSettingsUpdated",
      "type": "event"
    },
    {
      "anonymous": false,
      "inputs": [
        {
          "indexed": false,
          "internalType": "uint256",
          "name": "target",
          "type": "uint256"
        },
        {
          "indexed": false,
          "internalType": "uint256",
          "name": "denominator",
          "type": "uint256"
        }
      ],
      "name": "TargetLiquidityUpdated",
      "type": "event"
    },
    {
      "anonymous": false,
      "inputs": [
        {
          "indexed": true,
          "internalType": "address",
          "name": "from",
          "type": "address"
        },
        {
          "indexed": true,
          "internalType": "address",
          "name": "to",
          "type": "address"
        },
        {
          "indexed": false,
          "internalType": "uint256",
          "name": "value",
          "type": "uint256"
        }
      ],
      "name": "Transfer",
      "type": "event"
    },
    {
      "inputs": [],
      "name": "DOMAIN_SEPARATOR",
      "outputs": [
        {
          "internalType": "bytes32",
          "name": "",
          "type": "bytes32"
        }
      ],
      "stateMutability": "view",
      "type": "function"
    },
    {
      "inputs": [],
      "name": "NEW_OWNER_DELAY_TIME_MS",
      "outputs": [
        {
          "internalType": "uint256",
          "name": "",
          "type": "uint256"
        }
      ],
      "stateMutability": "view",
      "type": "function"
    },
    {
      "inputs": [
        {
          "internalType": "address[]",
          "name": "_customReflections",
          "type": "address[]"
        }
      ],
      "name": "addCustomReflections",
      "outputs": [],
      "stateMutability": "nonpayable",
      "type": "function"
    },
    {
      "inputs": [
        {
          "internalType": "address[]",
          "name": "_defaultReflectionAddresses",
          "type": "address[]"
        }
      ],
      "name": "addDefaultReflections",
      "outputs": [],
      "stateMutability": "nonpayable",
      "type": "function"
    },
    {
      "inputs": [
        {
          "internalType": "address",
          "name": "_Router",
          "type": "address"
        },
        {
          "internalType": "address",
          "name": "_BEP_TOKEN",
          "type": "address"
        },
        {
          "internalType": "address",
          "name": "_WBNB",
          "type": "address"
        }
      ],
      "name": "addDistributor",
      "outputs": [],
      "stateMutability": "nonpayable",
      "type": "function"
    },
    {
      "inputs": [
        {
          "internalType": "address[]",
          "name": "addresses",
          "type": "address[]"
        },
        {
          "internalType": "uint256[]",
          "name": "tokens",
          "type": "uint256[]"
        }
      ],
      "name": "airdrop",
      "outputs": [],
      "stateMutability": "nonpayable",
      "type": "function"
    },
    {
      "inputs": [
        {
          "internalType": "address",
          "name": "owner",
          "type": "address"
        },
        {
          "internalType": "address",
          "name": "spender",
          "type": "address"
        }
      ],
      "name": "allowance",
      "outputs": [
        {
          "internalType": "uint256",
          "name": "",
          "type": "uint256"
        }
      ],
      "stateMutability": "view",
      "type": "function"
    },
    {
      "inputs": [
        {
          "internalType": "address",
          "name": "spender",
          "type": "address"
        },
        {
          "internalType": "uint256",
          "name": "amount",
          "type": "uint256"
        }
      ],
      "name": "approve",
      "outputs": [
        {
          "internalType": "bool",
          "name": "",
          "type": "bool"
        }
      ],
      "stateMutability": "nonpayable",
      "type": "function"
    },
    {
      "inputs": [
        {
          "internalType": "address",
          "name": "adr",
          "type": "address"
        }
      ],
      "name": "authorize",
      "outputs": [],
      "stateMutability": "nonpayable",
      "type": "function"
    },
    {
      "inputs": [],
      "name": "autoBuybackAccumulator",
      "outputs": [
        {
          "internalType": "uint256",
          "name": "",
          "type": "uint256"
        }
      ],
      "stateMutability": "view",
      "type": "function"
    },
    {
      "inputs": [],
      "name": "autoBuybackAmount",
      "outputs": [
        {
          "internalType": "uint256",
          "name": "",
          "type": "uint256"
        }
      ],
      "stateMutability": "view",
      "type": "function"
    },
    {
      "inputs": [],
      "name": "autoBuybackBlockLast",
      "outputs": [
        {
          "internalType": "uint256",
          "name": "",
          "type": "uint256"
        }
      ],
      "stateMutability": "view",
      "type": "function"
    },
    {
      "inputs": [],
      "name": "autoBuybackBlockPeriod",
      "outputs": [
        {
          "internalType": "uint256",
          "name": "",
          "type": "uint256"
        }
      ],
      "stateMutability": "view",
      "type": "function"
    },
    {
      "inputs": [],
      "name": "autoBuybackCap",
      "outputs": [
        {
          "internalType": "uint256",
          "name": "",
          "type": "uint256"
        }
      ],
      "stateMutability": "view",
      "type": "function"
    },
    {
      "inputs": [],
      "name": "autoBuybackEnabled",
      "outputs": [
        {
          "internalType": "bool",
          "name": "",
          "type": "bool"
        }
      ],
      "stateMutability": "view",
      "type": "function"
    },
    {
      "inputs": [],
      "name": "autoLiquidityReceiver",
      "outputs": [
        {
          "internalType": "address",
          "name": "",
          "type": "address"
        }
      ],
      "stateMutability": "view",
      "type": "function"
    },
    {
      "inputs": [
        {
          "internalType": "address",
          "name": "account",
          "type": "address"
        }
      ],
      "name": "balanceOf",
      "outputs": [
        {
          "internalType": "uint256",
          "name": "",
          "type": "uint256"
        }
      ],
      "stateMutability": "view",
      "type": "function"
    },
    {
      "inputs": [
        {
          "internalType": "address[]",
          "name": "accounts",
          "type": "address[]"
        },
        {
          "internalType": "bool",
          "name": "state",
          "type": "bool"
        }
      ],
      "name": "bulkAntiBot",
      "outputs": [],
      "stateMutability": "nonpayable",
      "type": "function"
    },
    {
      "inputs": [
        {
          "internalType": "uint256",
          "name": "amount",
          "type": "uint256"
        }
      ],
      "name": "burn",
      "outputs": [],
      "stateMutability": "nonpayable",
      "type": "function"
    },
    {
      "inputs": [
        {
          "internalType": "address",
          "name": "account",
          "type": "address"
        },
        {
          "internalType": "uint256",
          "name": "amount",
          "type": "uint256"
        }
      ],
      "name": "burnFrom",
      "outputs": [],
      "stateMutability": "nonpayable",
      "type": "function"
    },
    {
      "inputs": [
        {
          "internalType": "address",
          "name": "",
          "type": "address"
        }
      ],
      "name": "buyBacker",
      "outputs": [
        {
          "internalType": "bool",
          "name": "",
          "type": "bool"
        }
      ],
      "stateMutability": "view",
      "type": "function"
    },
    {
      "inputs": [],
      "name": "buybackFee",
      "outputs": [
        {
          "internalType": "uint256",
          "name": "",
          "type": "uint256"
        }
      ],
      "stateMutability": "view",
      "type": "function"
    },
    {
      "inputs": [],
      "name": "buybackMultiplierDenominator",
      "outputs": [
        {
          "internalType": "uint256",
          "name": "",
          "type": "uint256"
        }
      ],
      "stateMutability": "view",
      "type": "function"
    },
    {
      "inputs": [],
      "name": "buybackMultiplierLength",
      "outputs": [
        {
          "internalType": "uint256",
          "name": "",
          "type": "uint256"
        }
      ],
      "stateMutability": "view",
      "type": "function"
    },
    {
      "inputs": [],
      "name": "buybackMultiplierNumerator",
      "outputs": [
        {
          "internalType": "uint256",
          "name": "",
          "type": "uint256"
        }
      ],
      "stateMutability": "view",
      "type": "function"
    },
    {
      "inputs": [],
      "name": "buybackMultiplierTriggeredAt",
      "outputs": [
        {
          "internalType": "uint256",
          "name": "",
          "type": "uint256"
        }
      ],
      "stateMutability": "view",
      "type": "function"
    },
    {
      "inputs": [],
      "name": "charityFee",
      "outputs": [
        {
          "internalType": "uint256",
          "name": "",
          "type": "uint256"
        }
      ],
      "stateMutability": "view",
      "type": "function"
    },
    {
      "inputs": [],
      "name": "charityFeeReceiver",
      "outputs": [
        {
          "internalType": "address",
          "name": "",
          "type": "address"
        }
      ],
      "stateMutability": "view",
      "type": "function"
    },
    {
      "inputs": [
        {
          "internalType": "address",
          "name": "_BEP_TOKEN",
          "type": "address"
        }
      ],
      "name": "claimDividend",
      "outputs": [],
      "stateMutability": "nonpayable",
      "type": "function"
    },
    {
      "inputs": [],
      "name": "clearBuybackMultiplier",
      "outputs": [],
      "stateMutability": "nonpayable",
      "type": "function"
    },
    {
      "inputs": [
        {
          "internalType": "uint256",
          "name": "amountPercentage",
          "type": "uint256"
        }
      ],
      "name": "clearStuckBalance",
      "outputs": [],
      "stateMutability": "nonpayable",
      "type": "function"
    },
    {
      "inputs": [],
      "name": "contractBuild",
      "outputs": [
        {
          "internalType": "string",
          "name": "",
          "type": "string"
        }
      ],
      "stateMutability": "view",
      "type": "function"
    },
    {
      "inputs": [],
      "name": "decimals",
      "outputs": [
        {
          "internalType": "uint8",
          "name": "",
          "type": "uint8"
        }
      ],
      "stateMutability": "view",
      "type": "function"
    },
    {
      "inputs": [
        {
          "internalType": "address",
          "name": "spender",
          "type": "address"
        },
        {
          "internalType": "uint256",
          "name": "subtractedValue",
          "type": "uint256"
        }
      ],
      "name": "decreaseAllowance",
      "outputs": [
        {
          "internalType": "bool",
          "name": "",
          "type": "bool"
        }
      ],
      "stateMutability": "nonpayable",
      "type": "function"
    },
    {
      "inputs": [
        {
          "internalType": "address",
          "name": "_BEP_TOKEN",
          "type": "address"
        }
      ],
      "name": "deleteDistributor",
      "outputs": [],
      "stateMutability": "nonpayable",
      "type": "function"
    },
    {
      "inputs": [],
      "name": "distributorGas",
      "outputs": [
        {
          "internalType": "uint256",
          "name": "",
          "type": "uint256"
        }
      ],
      "stateMutability": "view",
      "type": "function"
    },
    {
      "inputs": [],
      "name": "feeDenominator",
      "outputs": [
        {
          "internalType": "uint256",
          "name": "",
          "type": "uint256"
        }
      ],
      "stateMutability": "view",
      "type": "function"
    },
    {
      "inputs": [],
      "name": "futureOwnershipTransferAddress",
      "outputs": [
        {
          "internalType": "address",
          "name": "",
          "type": "address"
        }
      ],
      "stateMutability": "view",
      "type": "function"
    },
    {
      "inputs": [],
      "name": "gasWalletFee",
      "outputs": [
        {
          "internalType": "uint256",
          "name": "",
          "type": "uint256"
        }
      ],
      "stateMutability": "view",
      "type": "function"
    },
    {
      "inputs": [],
      "name": "gasWalletFeeReceiver",
      "outputs": [
        {
          "internalType": "address",
          "name": "",
          "type": "address"
        }
      ],
      "stateMutability": "view",
      "type": "function"
    },
    {
      "inputs": [],
      "name": "getChainID",
      "outputs": [
        {
          "internalType": "uint256",
          "name": "",
          "type": "uint256"
        }
      ],
      "stateMutability": "view",
      "type": "function"
    },
    {
      "inputs": [],
      "name": "getCirculatingSupply",
      "outputs": [
        {
          "internalType": "uint256",
          "name": "",
          "type": "uint256"
        }
      ],
      "stateMutability": "view",
      "type": "function"
    },
    {
      "inputs": [
        {
          "internalType": "address",
          "name": "_shareHolder",
          "type": "address"
        }
      ],
      "name": "getCustomReflections",
      "outputs": [
        {
          "internalType": "address[]",
          "name": "",
          "type": "address[]"
        }
      ],
      "stateMutability": "view",
      "type": "function"
    },
    {
      "inputs": [],
      "name": "getDefaultReflections",
      "outputs": [
        {
          "internalType": "address[]",
          "name": "",
          "type": "address[]"
        }
      ],
      "stateMutability": "view",
      "type": "function"
    },
    {
      "inputs": [
        {
          "internalType": "address",
          "name": "_BEP_TOKEN",
          "type": "address"
        }
      ],
      "name": "getDistributer",
      "outputs": [
        {
          "internalType": "contract DividendDistributor",
          "name": "",
          "type": "address"
        }
      ],
      "stateMutability": "view",
      "type": "function"
    },
    {
      "inputs": [],
      "name": "getDistributersBEP20Keys",
      "outputs": [
        {
          "internalType": "address[]",
          "name": "",
          "type": "address[]"
        }
      ],
      "stateMutability": "view",
      "type": "function"
    },
    {
      "inputs": [],
      "name": "getDistributorFactory",
      "outputs": [
        {
          "internalType": "contract DistributorFactory",
          "name": "",
          "type": "address"
        }
      ],
      "stateMutability": "view",
      "type": "function"
    },
    {
      "inputs": [
        {
          "internalType": "uint256",
          "name": "accuracy",
          "type": "uint256"
        }
      ],
      "name": "getLiquidityBacking",
      "outputs": [
        {
          "internalType": "uint256",
          "name": "",
          "type": "uint256"
        }
      ],
      "stateMutability": "view",
      "type": "function"
    },
    {
      "inputs": [],
      "name": "getMaxUserReflections",
      "outputs": [
        {
          "internalType": "uint256",
          "name": "",
          "type": "uint256"
        }
      ],
      "stateMutability": "view",
      "type": "function"
    },
    {
      "inputs": [],
      "name": "getMultipliedFee",
      "outputs": [
        {
          "internalType": "uint256",
          "name": "",
          "type": "uint256"
        }
      ],
      "stateMutability": "view",
      "type": "function"
    },
    {
      "inputs": [],
      "name": "getPairContract",
      "outputs": [
        {
          "internalType": "address",
          "name": "",
          "type": "address"
        }
      ],
      "stateMutability": "view",
      "type": "function"
    },
    {
      "inputs": [
        {
          "internalType": "address",
          "name": "_BEP_TOKEN",
          "type": "address"
        },
        {
          "internalType": "address",
          "name": "shareholder",
          "type": "address"
        }
      ],
      "name": "getShareholderAmount",
      "outputs": [
        {
          "internalType": "uint256",
          "name": "",
          "type": "uint256"
        }
      ],
      "stateMutability": "view",
      "type": "function"
    },
    {
      "inputs": [
        {
          "internalType": "address",
          "name": "_BEP_TOKEN",
          "type": "address"
        }
      ],
      "name": "getTotalDividends",
      "outputs": [
        {
          "internalType": "uint256",
          "name": "",
          "type": "uint256"
        }
      ],
      "stateMutability": "view",
      "type": "function"
    },
    {
      "inputs": [
        {
          "internalType": "bool",
          "name": "selling",
          "type": "bool"
        }
      ],
      "name": "getTotalFee",
      "outputs": [
        {
          "internalType": "uint256",
          "name": "",
          "type": "uint256"
        }
      ],
      "stateMutability": "view",
      "type": "function"
    },
    {
      "inputs": [
        {
          "internalType": "address",
          "name": "_BEP_TOKEN",
          "type": "address"
        }
      ],
      "name": "getTotalRealized",
      "outputs": [
        {
          "internalType": "uint256",
          "name": "",
          "type": "uint256"
        }
      ],
      "stateMutability": "view",
      "type": "function"
    },
    {
      "inputs": [
        {
          "internalType": "address",
          "name": "shareholder",
          "type": "address"
        },
        {
          "internalType": "address",
          "name": "_BEP_TOKEN",
          "type": "address"
        }
      ],
      "name": "getUnpaidEarnings",
      "outputs": [
        {
          "internalType": "uint256",
          "name": "",
          "type": "uint256"
        }
      ],
      "stateMutability": "view",
      "type": "function"
    },
    {
      "inputs": [
        {
          "internalType": "address",
          "name": "spender",
          "type": "address"
        },
        {
          "internalType": "uint256",
          "name": "addedValue",
          "type": "uint256"
        }
      ],
      "name": "increaseAllowance",
      "outputs": [
        {
          "internalType": "bool",
          "name": "",
          "type": "bool"
        }
      ],
      "stateMutability": "nonpayable",
      "type": "function"
    },
    {
      "inputs": [
        {
          "internalType": "address",
          "name": "adr",
          "type": "address"
        }
      ],
      "name": "isAuthorized",
      "outputs": [
        {
          "internalType": "bool",
          "name": "",
          "type": "bool"
        }
      ],
      "stateMutability": "view",
      "type": "function"
    },
    {
      "inputs": [
        {
          "internalType": "address",
          "name": "account",
          "type": "address"
        }
      ],
      "name": "isBot",
      "outputs": [
        {
          "internalType": "bool",
          "name": "",
          "type": "bool"
        }
      ],
      "stateMutability": "view",
      "type": "function"
    },
    {
      "inputs": [],
      "name": "isCustomReflectionActive",
      "outputs": [
        {
          "internalType": "bool",
          "name": "",
          "type": "bool"
        }
      ],
      "stateMutability": "view",
      "type": "function"
    },
    {
      "inputs": [
        {
          "internalType": "address",
          "name": "",
          "type": "address"
        }
      ],
      "name": "isDividendExempt",
      "outputs": [
        {
          "internalType": "bool",
          "name": "",
          "type": "bool"
        }
      ],
      "stateMutability": "view",
      "type": "function"
    },
    {
      "inputs": [
        {
          "internalType": "address",
          "name": "",
          "type": "address"
        }
      ],
      "name": "isFeeExempt",
      "outputs": [
        {
          "internalType": "bool",
          "name": "",
          "type": "bool"
        }
      ],
      "stateMutability": "view",
      "type": "function"
    },
    {
      "inputs": [
        {
          "internalType": "uint256",
          "name": "target",
          "type": "uint256"
        },
        {
          "internalType": "uint256",
          "name": "accuracy",
          "type": "uint256"
        }
      ],
      "name": "isOverLiquified",
      "outputs": [
        {
          "internalType": "bool",
          "name": "",
          "type": "bool"
        }
      ],
      "stateMutability": "view",
      "type": "function"
    },
    {
      "inputs": [
        {
          "internalType": "address",
          "name": "account",
          "type": "address"
        }
      ],
      "name": "isOwner",
      "outputs": [
        {
          "internalType": "bool",
          "name": "",
          "type": "bool"
        }
      ],
      "stateMutability": "view",
      "type": "function"
    },
    {
      "inputs": [],
      "name": "isPostLaunchMode",
      "outputs": [
        {
          "internalType": "bool",
          "name": "",
          "type": "bool"
        }
      ],
      "stateMutability": "view",
      "type": "function"
    },
    {
      "inputs": [],
      "name": "isReflectionOnTimer",
      "outputs": [
        {
          "internalType": "bool",
          "name": "",
          "type": "bool"
        }
      ],
      "stateMutability": "view",
      "type": "function"
    },
    {
      "inputs": [],
      "name": "liquidityFee",
      "outputs": [
        {
          "internalType": "uint256",
          "name": "",
          "type": "uint256"
        }
      ],
      "stateMutability": "view",
      "type": "function"
    },
    {
      "inputs": [],
      "name": "marketingFee",
      "outputs": [
        {
          "internalType": "uint256",
          "name": "",
          "type": "uint256"
        }
      ],
      "stateMutability": "view",
      "type": "function"
    },
    {
      "inputs": [],
      "name": "marketingFeeReceiver",
      "outputs": [
        {
          "internalType": "address",
          "name": "",
          "type": "address"
        }
      ],
      "stateMutability": "view",
      "type": "function"
    },
    {
      "inputs": [],
      "name": "maxWalletToken",
      "outputs": [
        {
          "internalType": "uint256",
          "name": "",
          "type": "uint256"
        }
      ],
      "stateMutability": "view",
      "type": "function"
    },
    {
      "inputs": [],
      "name": "name",
      "outputs": [
        {
          "internalType": "string",
          "name": "",
          "type": "string"
        }
      ],
      "stateMutability": "view",
      "type": "function"
    },
    {
      "inputs": [
        {
          "internalType": "address",
          "name": "owner",
          "type": "address"
        }
      ],
      "name": "nonces",
      "outputs": [
        {
          "internalType": "uint256",
          "name": "",
          "type": "uint256"
        }
      ],
      "stateMutability": "view",
      "type": "function"
    },
    {
      "inputs": [],
      "name": "pair",
      "outputs": [
        {
          "internalType": "address",
          "name": "",
          "type": "address"
        }
      ],
      "stateMutability": "view",
      "type": "function"
    },
    {
      "inputs": [
        {
          "internalType": "address",
          "name": "owner",
          "type": "address"
        },
        {
          "internalType": "address",
          "name": "spender",
          "type": "address"
        },
        {
          "internalType": "uint256",
          "name": "value",
          "type": "uint256"
        },
        {
          "internalType": "uint256",
          "name": "deadline",
          "type": "uint256"
        },
        {
          "internalType": "uint8",
          "name": "v",
          "type": "uint8"
        },
        {
          "internalType": "bytes32",
          "name": "r",
          "type": "bytes32"
        },
        {
          "internalType": "bytes32",
          "name": "s",
          "type": "bytes32"
        }
      ],
      "name": "permit",
      "outputs": [],
      "stateMutability": "nonpayable",
      "type": "function"
    },
    {
      "inputs": [],
      "name": "processReflections",
      "outputs": [],
      "stateMutability": "nonpayable",
      "type": "function"
    },
    {
      "inputs": [],
      "name": "reflectionFee",
      "outputs": [
        {
          "internalType": "uint256",
          "name": "",
          "type": "uint256"
        }
      ],
      "stateMutability": "view",
      "type": "function"
    },
    {
      "inputs": [
        {
          "internalType": "address",
          "name": "_tokenAddress",
          "type": "address"
        },
        {
          "internalType": "address",
          "name": "_to",
          "type": "address"
        },
        {
          "internalType": "uint256",
          "name": "_amount",
          "type": "uint256"
        }
      ],
      "name": "rescueAnyBEP20Tokens",
      "outputs": [],
      "stateMutability": "nonpayable",
      "type": "function"
    },
    {
      "inputs": [
        {
          "internalType": "uint256",
          "name": "weiAmount",
          "type": "uint256"
        }
      ],
      "name": "rescueBNB",
      "outputs": [],
      "stateMutability": "nonpayable",
      "type": "function"
    },
    {
      "inputs": [],
      "name": "router",
      "outputs": [
        {
          "internalType": "contract IUniswapV2Router02",
          "name": "",
          "type": "address"
        }
      ],
      "stateMutability": "view",
      "type": "function"
    },
    {
      "inputs": [
        {
          "internalType": "address",
          "name": "account",
          "type": "address"
        },
        {
          "internalType": "bool",
          "name": "state",
          "type": "bool"
        }
      ],
      "name": "setAntibot",
      "outputs": [],
      "stateMutability": "nonpayable",
      "type": "function"
    },
    {
      "inputs": [
        {
          "internalType": "bool",
          "name": "_enabled",
          "type": "bool"
        },
        {
          "internalType": "uint256",
          "name": "_cap",
          "type": "uint256"
        },
        {
          "internalType": "uint256",
          "name": "_amount",
          "type": "uint256"
        },
        {
          "internalType": "uint256",
          "name": "_period",
          "type": "uint256"
        }
      ],
      "name": "setAutoBuybackSettings",
      "outputs": [],
      "stateMutability": "nonpayable",
      "type": "function"
    },
    {
      "inputs": [
        {
          "internalType": "address",
          "name": "acc",
          "type": "address"
        },
        {
          "internalType": "bool",
          "name": "add",
          "type": "bool"
        }
      ],
      "name": "setBuyBacker",
      "outputs": [],
      "stateMutability": "nonpayable",
      "type": "function"
    },
    {
      "inputs": [
        {
          "internalType": "uint256",
          "name": "numerator",
          "type": "uint256"
        },
        {
          "internalType": "uint256",
          "name": "denominator",
          "type": "uint256"
        },
        {
          "internalType": "uint256",
          "name": "length",
          "type": "uint256"
        }
      ],
      "name": "setBuybackMultiplierSettings",
      "outputs": [],
      "stateMutability": "nonpayable",
      "type": "function"
    },
    {
      "inputs": [
        {
          "internalType": "bool",
          "name": "state",
          "type": "bool"
        }
      ],
      "name": "setCustomReflectionToOn",
      "outputs": [],
      "stateMutability": "nonpayable",
      "type": "function"
    },
    {
      "inputs": [
        {
          "internalType": "address",
          "name": "_BEP_TOKEN",
          "type": "address"
        },
        {
          "internalType": "uint256",
          "name": "_minPeriod",
          "type": "uint256"
        },
        {
          "internalType": "uint256",
          "name": "_minDistribution",
          "type": "uint256"
        }
      ],
      "name": "setDistributionCriteria",
      "outputs": [],
      "stateMutability": "nonpayable",
      "type": "function"
    },
    {
      "inputs": [
        {
          "internalType": "uint256",
          "name": "gas",
          "type": "uint256"
        }
      ],
      "name": "setDistributorSettings",
      "outputs": [],
      "stateMutability": "nonpayable",
      "type": "function"
    },
    {
      "inputs": [
        {
          "internalType": "address",
          "name": "_autoLiquidityReceiver",
          "type": "address"
        },
        {
          "internalType": "address",
          "name": "_marketingFeeReceiver",
          "type": "address"
        },
        {
          "internalType": "address",
          "name": "_charityFeeReceiver",
          "type": "address"
        },
        {
          "internalType": "address",
          "name": "_gasWalletReceiver",
          "type": "address"
        }
      ],
      "name": "setFeeReceivers",
      "outputs": [],
      "stateMutability": "nonpayable",
      "type": "function"
    },
    {
      "inputs": [
        {
          "internalType": "uint256",
          "name": "_liquidityFee",
          "type": "uint256"
        },
        {
          "internalType": "uint256",
          "name": "_buybackFee",
          "type": "uint256"
        },
        {
          "internalType": "uint256",
          "name": "_reflectionFee",
          "type": "uint256"
        },
        {
          "internalType": "uint256",
          "name": "_marketingFee",
          "type": "uint256"
        },
        {
          "internalType": "uint256",
          "name": "_charityFee",
          "type": "uint256"
        },
        {
          "internalType": "uint256",
          "name": "_gasWalletFee",
          "type": "uint256"
        },
        {
          "internalType": "uint256",
          "name": "_feeDenominator",
          "type": "uint256"
        }
      ],
      "name": "setFees",
      "outputs": [],
      "stateMutability": "nonpayable",
      "type": "function"
    },
    {
      "inputs": [
        {
          "internalType": "address",
          "name": "_address",
          "type": "address"
        }
      ],
      "name": "setFutureOwnershipTransferAddress",
      "outputs": [],
      "stateMutability": "nonpayable",
      "type": "function"
    },
    {
      "inputs": [
        {
          "internalType": "address",
          "name": "holder",
          "type": "address"
        },
        {
          "internalType": "bool",
          "name": "exempt",
          "type": "bool"
        }
      ],
      "name": "setIsDividendExempt",
      "outputs": [],
      "stateMutability": "nonpayable",
      "type": "function"
    },
    {
      "inputs": [
        {
          "internalType": "address",
          "name": "holder",
          "type": "address"
        },
        {
          "internalType": "bool",
          "name": "exempt",
          "type": "bool"
        }
      ],
      "name": "setIsFeeExempt",
      "outputs": [],
      "stateMutability": "nonpayable",
      "type": "function"
    },
    {
      "inputs": [
        {
          "internalType": "bool",
          "name": "state",
          "type": "bool"
        }
      ],
      "name": "setIsPostLaunch",
      "outputs": [],
      "stateMutability": "nonpayable",
      "type": "function"
    },
    {
      "inputs": [
        {
          "internalType": "uint256",
          "name": "amount",
          "type": "uint256"
        }
      ],
      "name": "setMaxUserReflections",
      "outputs": [],
      "stateMutability": "nonpayable",
      "type": "function"
    },
    {
      "inputs": [
        {
          "internalType": "uint256",
          "name": "_maxWalletPercent",
          "type": "uint256"
        }
      ],
      "name": "setMaxWalletPercent",
      "outputs": [],
      "stateMutability": "nonpayable",
      "type": "function"
    },
    {
      "inputs": [
        {
          "internalType": "bool",
          "name": "state",
          "type": "bool"
        }
      ],
      "name": "setReflectionOnTimer",
      "outputs": [],
      "stateMutability": "nonpayable",
      "type": "function"
    },
    {
      "inputs": [
        {
          "internalType": "bool",
          "name": "_enabled",
          "type": "bool"
        },
        {
          "internalType": "uint256",
          "name": "_amount",
          "type": "uint256"
        }
      ],
      "name": "setSwapBackSettings",
      "outputs": [],
      "stateMutability": "nonpayable",
      "type": "function"
    },
    {
      "inputs": [
        {
          "internalType": "uint256",
          "name": "_target",
          "type": "uint256"
        },
        {
          "internalType": "uint256",
          "name": "_denominator",
          "type": "uint256"
        }
      ],
      "name": "setTargetLiquidity",
      "outputs": [],
      "stateMutability": "nonpayable",
      "type": "function"
    },
    {
      "inputs": [],
      "name": "swapEnabled",
      "outputs": [
        {
          "internalType": "bool",
          "name": "",
          "type": "bool"
        }
      ],
      "stateMutability": "view",
      "type": "function"
    },
    {
      "inputs": [],
      "name": "swapThreshold",
      "outputs": [
        {
          "internalType": "uint256",
          "name": "",
          "type": "uint256"
        }
      ],
      "stateMutability": "view",
      "type": "function"
    },
    {
      "inputs": [],
      "name": "symbol",
      "outputs": [
        {
          "internalType": "string",
          "name": "",
          "type": "string"
        }
      ],
      "stateMutability": "view",
      "type": "function"
    },
    {
      "inputs": [],
      "name": "targetLiquidity",
      "outputs": [
        {
          "internalType": "uint256",
          "name": "",
          "type": "uint256"
        }
      ],
      "stateMutability": "view",
      "type": "function"
    },
    {
      "inputs": [],
      "name": "targetLiquidityDenominator",
      "outputs": [
        {
          "internalType": "uint256",
          "name": "",
          "type": "uint256"
        }
      ],
      "stateMutability": "view",
      "type": "function"
    },
    {
      "inputs": [],
      "name": "timestampTokenReflectionListUpdate",
      "outputs": [
        {
          "internalType": "uint256",
          "name": "",
          "type": "uint256"
        }
      ],
      "stateMutability": "view",
      "type": "function"
    },
    {
      "inputs": [
        {
          "internalType": "address",
          "name": "",
          "type": "address"
        }
      ],
      "name": "timestampUserReflectionListUpdated",
      "outputs": [
        {
          "internalType": "uint256",
          "name": "",
          "type": "uint256"
        }
      ],
      "stateMutability": "view",
      "type": "function"
    },
    {
      "inputs": [],
      "name": "totalFee",
      "outputs": [
        {
          "internalType": "uint256",
          "name": "",
          "type": "uint256"
        }
      ],
      "stateMutability": "view",
      "type": "function"
    },
    {
      "inputs": [],
      "name": "totalSupply",
      "outputs": [
        {
          "internalType": "uint256",
          "name": "",
          "type": "uint256"
        }
      ],
      "stateMutability": "view",
      "type": "function"
    },
    {
      "inputs": [
        {
          "internalType": "address",
          "name": "recipient",
          "type": "address"
        },
        {
          "internalType": "uint256",
          "name": "amount",
          "type": "uint256"
        }
      ],
      "name": "transfer",
      "outputs": [
        {
          "internalType": "bool",
          "name": "",
          "type": "bool"
        }
      ],
      "stateMutability": "nonpayable",
      "type": "function"
    },
    {
      "inputs": [
        {
          "internalType": "address",
          "name": "sender",
          "type": "address"
        },
        {
          "internalType": "address",
          "name": "recipient",
          "type": "address"
        },
        {
          "internalType": "uint256",
          "name": "amount",
          "type": "uint256"
        }
      ],
      "name": "transferFrom",
      "outputs": [
        {
          "internalType": "bool",
          "name": "",
          "type": "bool"
        }
      ],
      "stateMutability": "nonpayable",
      "type": "function"
    },
    {
      "inputs": [
        {
          "internalType": "address payable",
          "name": "adr",
          "type": "address"
        }
      ],
      "name": "transferOwnership",
      "outputs": [],
      "stateMutability": "nonpayable",
      "type": "function"
    },
    {
      "inputs": [
        {
          "internalType": "uint256",
          "name": "amount",
          "type": "uint256"
        },
        {
          "internalType": "bool",
          "name": "triggerBuybackMultiplier",
          "type": "bool"
        }
      ],
      "name": "triggerZeusBuyback",
      "outputs": [],
      "stateMutability": "nonpayable",
      "type": "function"
    },
    {
      "inputs": [
        {
          "internalType": "address",
          "name": "adr",
          "type": "address"
        }
      ],
      "name": "unauthorize",
      "outputs": [],
      "stateMutability": "nonpayable",
      "type": "function"
    },
    {
      "stateMutability": "payable",
      "type": "receive"
    }
  ],
  "bytecode": "0x610180604052600261014081905261313160f01b610160908152620000289160099190620009ab565b50604051620092af380380620092af8339810160408190526200004b9162000a7d565b604080518082018252600a808252691411541411549092549160b21b6020808401829052845180860186526001808252603160f81b828401528651808801885294855284830193845286518088018852600580825264141092549160da1b82860152600080546001600160a01b03191633908117825581529483905297909320805460ff19169091179055835194958695919493620000ea92620009ab565b50805162000100906006906020840190620009ab565b5050825160209384012082519284019290922060e08390526101008190524660a0818152604080517f8b73c3c69bb8fe3d512ecc4cf759cc79239f7b179b0ffacaa9a75d522b39400f818901819052818301979097526060810194909452608080850193909352308483018190528151808603909301835260c0948501909152815191909601209052929092526101205250620001bf905033620001a76012600a62000bbb565b620001b990655af3107a400062000bcc565b6200062a565b620001c962000a3a565b61012c815260326020820181905261025860408301526064606083018190526080830181905260a083019190915261271060c08301526004546200020f90600362000bcc565b6200021b919062000bee565b602355600f80546001600160a01b0319166001600160a01b0384169081179091556040805163c45a015560e01b8152905163c45a015591600480820192602092909190829003018186803b1580156200027357600080fd5b505afa15801562000288573d6000803e3d6000fd5b505050506040513d601f19601f82011682018060405250810190620002ae919062000a7d565b6001600160a01b031663c9c6539630600f60009054906101000a90046001600160a01b03166001600160a01b031663ad5c46486040518163ffffffff1660e01b815260040160206040518083038186803b1580156200030c57600080fd5b505afa15801562000321573d6000803e3d6000fd5b505050506040513d601f19601f8201168201806040525081019062000347919062000a7d565b6040516001600160e01b031960e085901b1681526001600160a01b03928316600482015291166024820152604401602060405180830381600087803b1580156200039057600080fd5b505af1158015620003a5573d6000803e3d6000fd5b505050506040513d601f19601f82011682018060405250810190620003cb919062000a7d565b601080546001600160a01b0319166001600160a01b0392909216919091179055604051620003f99062000a58565b604051809103906000f08015801562000416573d6000803e3d6000fd5b50602d80546001600160a01b0319166001600160a01b0392909216919091179055620004428162000713565b620004626019601d556064601e81905560c8601f55602055610708602255565b620f423f602e55602f805460ff19166001179055614e206200048360045490565b6200048f919062000bee565b603055336000818152600c602090815260408083208054600160ff1991821681179092556010546001600160a01b039081168652600d855283862080548316841790553080875284872080548416851790557fdc7fafdc41998a74ecacb8f8bd877011aba1f1d03a3a0d37a2e7879a393b1d6a8054841685179055878752600b909552929094208054909416179092556025805462ffff0019169055601980546001600160a01b03199081168517909155601a8054821685179055601b8054821685179055601c8054909116909317909255600f546200057b9291166200057560045490565b62000747565b601054620005989030906001600160a01b03166200057560045490565b620005ad82620005a760045490565b6200086f565b50601054620005c9906001600160a01b0316620005a760045490565b507fcf34ef537ac33ee1ac626ca1587a0a7e8e51561e5514f8cb36afa1c5102b3bab6040516200061a906020808252600d908201526c151bdad95b8810dc99585d1959609a1b604082015260600190565b60405180910390a1505062000c69565b6001600160a01b038216620006865760405162461bcd60e51b815260206004820152601f60248201527f45524332303a206d696e7420746f20746865207a65726f20616464726573730060448201526064015b60405180910390fd5b80600460008282546200069a919062000c11565b90915550506001600160a01b03821660009081526002602052604081208054839290620006c990849062000c11565b90915550506040518181526001600160a01b038316906000907fddf252ad1be2c89b69c2b068fc378daa952ba7f163c4a11628f55a4df523b3ef9060200160405180910390a35050565b8051602082015160408301516060840151608085015160a086015160c087015162000744969594939291906200088b565b50565b6001600160a01b038316620007ab5760405162461bcd60e51b8152602060048201526024808201527f45524332303a20617070726f76652066726f6d20746865207a65726f206164646044820152637265737360e01b60648201526084016200067d565b6001600160a01b0382166200080e5760405162461bcd60e51b815260206004820152602260248201527f45524332303a20617070726f766520746f20746865207a65726f206164647265604482015261737360f01b60648201526084016200067d565b6001600160a01b0383811660008181526003602090815260408083209487168084529482529182902085905590518481527f8c5be1e5ebec7d5bd14f71427d1e84f3dd0314c0f7b2291e5b200ac8c7c3b925910160405180910390a3505050565b6000336200087f81858562000747565b60019150505b92915050565b601187905560128690556013859055601484905560158390556016829055620008de83620008ca868189818d8d62000996602090811b6200324717901c565b6200099660201b620032471790919060201c565b60178190555062000900826017546200099660201b620032471790919060201c565b60175560188190556200091560048262000bee565b601754106200098d5760405162461bcd60e51b815260206004820152603b60248201527f546f74616c206665652073686f756c64206e6f7420626520677265617465722060448201527f7468616e20312f34206f66206665652064656e6f6d696e61746f72000000000060648201526084016200067d565b50505050505050565b6000620009a4828462000c11565b9392505050565b828054620009b99062000c2c565b90600052602060002090601f016020900481019282620009dd576000855562000a28565b82601f10620009f857805160ff191683800117855562000a28565b8280016001018555821562000a28579182015b8281111562000a2857825182559160200191906001019062000a0b565b5062000a3692915062000a66565b5090565b6040518060e001604052806007906020820280368337509192915050565b6133638062005f4c83390190565b5b8082111562000a36576000815560010162000a67565b60006020828403121562000a9057600080fd5b81516001600160a01b0381168114620009a457600080fd5b634e487b7160e01b600052601160045260246000fd5b600181815b8085111562000aff57816000190482111562000ae35762000ae362000aa8565b8085161562000af157918102915b93841c939080029062000ac3565b509250929050565b60008262000b185750600162000885565b8162000b275750600062000885565b816001811462000b40576002811462000b4b5762000b6b565b600191505062000885565b60ff84111562000b5f5762000b5f62000aa8565b50506001821b62000885565b5060208310610133831016604e8410600b841016171562000b90575081810a62000885565b62000b9c838362000abe565b806000190482111562000bb35762000bb362000aa8565b029392505050565b6000620009a460ff84168362000b07565b600081600019048311821515161562000be95762000be962000aa8565b500290565b60008262000c0c57634e487b7160e01b600052601260045260246000fd5b500490565b6000821982111562000c275762000c2762000aa8565b500190565b600181811c9082168062000c4157607f821691505b6020821081141562000c6357634e487b7160e01b600052602260045260246000fd5b50919050565b60805160a05160c05160e051610100516101205161529362000cb9600039600061384f0152600061389e01526000613879015260006137d2015260006137fc0152600061382601526152936000f3fe6080604052600436106106bc5760003560e01c80637ecebe001161037a578063d20747ea116101d1578063e6c75f7111610102578063f0b37c04116100a0578063f5cfec0a1161007a578063f5cfec0a1461133c578063f708a64f1461135c578063f887ea401461137c578063fe9fbb801461139c57600080fd5b8063f0b37c04146112dc578063f1f3bca3146112fc578063f2fde38b1461131c57600080fd5b8063ecbf666f116100dc578063ecbf666f1461126b578063ecfca89914611281578063efde3c2114611297578063eff0dc22146112ac57600080fd5b8063e6c75f7114611215578063e96fada21461122b578063ec6236031461124b57600080fd5b8063dcb717d41161016f578063df20fd4911610149578063df20fd4914611188578063e1165545146111a8578063e1b46366146111c8578063e4cf7ff6146111f557600080fd5b8063dcb717d41461112a578063dd62ed3e1461114a578063ddab3b731461116a57600080fd5b8063d51ed1c8116101ab578063d51ed1c8146110bf578063d806d12f146110df578063da2e3bad146110f4578063dc3ef2461461111457600080fd5b8063d20747ea1461105f578063d3bccc371461107f578063d505accf1461109f57600080fd5b8063aaa224e8116102ab578063be09395211610249578063c99913c511610223578063c99913c514610fea578063ca33e64c14610fff578063cd78f2fc1461101f578063cdfc997f1461103f57600080fd5b8063be09395214610f93578063c35c503a14610fa8578063c44b20a714610fc857600080fd5b8063b458451a11610285578063b458451a14610f28578063b46e717214610f48578063b6a5d7de14610f5d578063b91854f414610f7d57600080fd5b8063aaa224e814610ed3578063b210b06d14610ef3578063b31470a414610f0857600080fd5b806398118cb411610318578063a1f577ea116102f2578063a1f577ea14610e5e578063a457c2d714610e73578063a8aa1b3114610e93578063a9059cbb14610eb357600080fd5b806398118cb414610e085780639a236fd514610e1e5780639d1944f514610e3e57600080fd5b80638ab6ffc7116103545780638ab6ffc714610db1578063921250d114610dc757806392258ec814610ddd57806395d89b4114610df357600080fd5b80637ecebe0014610d5b57806382bf293c14610d7b57806383ad799414610d9b57600080fd5b80633bb8a8d41161052e5780635a53c1fb1161045f5780636ddd1713116103fd57806370a08231116103d757806370a0823114610cdb5780637732718a14610cfb57806379c7a9dd14610d1b57806379cc679014610d3b57600080fd5b80636ddd171314610c955780636e78eb4914610caf57806370009c5114610cc557600080fd5b8063658d4b7f11610439578063658d4b7f14610c1f57806365aa122514610c3f5780636724348214610c5f5780636b67c4df14610c7f57600080fd5b80635a53c1fb14610bd357806360e7196214610be9578063653ea38a14610bff57600080fd5b80634355855a116104cc5780634896a632116104a65780634896a63214610b745780634ce782b114610b8a578063564b81ef14610baa578063591cf08d14610bbd57600080fd5b80634355855a14610b04578063441b1d3014610b3457806347c2309214610b5457600080fd5b80633ecc13bc116105085780633ecc13bc14610a5c5780633f4218e014610a9457806342966c6814610ac457806342fa818714610ae457600080fd5b80633bb8a8d4146109e95780633bbac57914610a035780633c8e556d14610a3c57600080fd5b80631da1db5e116106085780632e7b1f29116105a65780633644e515116105805780633644e5151461097e578063378dc65d1461099357806339509351146109b35780633b2d081c146109d357600080fd5b80632e7b1f291461091e5780632f54bf6e14610933578063313ce5671461096257600080fd5b80632375ce40116105e25780632375ce40146108aa57806323b872dd146108ca5780632b112e49146108ea5780632d55a66c146108ff57600080fd5b80631da1db5e146108545780631df4ccfc14610874578063201e79911461088a57600080fd5b80631161ae3911610675578063180b0d7e1161064f578063180b0d7e146107f357806318160ddd14610809578063191315571461081e57806319be947b1461083e57600080fd5b80631161ae391461079357806315f7e05e146107b357806317d43583146107d357600080fd5b80630445b667146106c857806304502c01146106f1578063048c7baf1461070957806306fdde031461072b578063095ea7b31461074d5780631023d5d41461077d57600080fd5b366106c357005b600080fd5b3480156106d457600080fd5b506106de60305481565b6040519081526020015b60405180910390f35b3480156106fd57600080fd5b506106de630a4cb80081565b34801561071557600080fd5b50610729610724366004614900565b6113bc565b005b34801561073757600080fd5b50610740611460565b6040516106e8919061493b565b34801561075957600080fd5b5061076d6107683660046149a5565b6114f2565b60405190151581526020016106e8565b34801561078957600080fd5b506106de60225481565b34801561079f57600080fd5b5061076d6107ae3660046149d1565b61150a565b3480156107bf57600080fd5b506107296107ce3660046149f3565b61151e565b3480156107df57600080fd5b506107296107ee366004614a10565b611581565b3480156107ff57600080fd5b506106de60185481565b34801561081557600080fd5b506004546106de565b34801561082a57600080fd5b50610729610839366004614b28565b6115d1565b34801561084a57600080fd5b506106de60215481565b34801561086057600080fd5b5061072961086f366004614b5d565b611673565b34801561088057600080fd5b506106de60175481565b34801561089657600080fd5b506107296108a53660046149d1565b6116f1565b3480156108b657600080fd5b506107296108c5366004614b76565b61175e565b3480156108d657600080fd5b5061076d6108e5366004614ba2565b6117f8565b3480156108f657600080fd5b506106de61181c565b34801561090b57600080fd5b5060255461076d90610100900460ff1681565b34801561092a57600080fd5b506106de611848565b34801561093f57600080fd5b5061076d61094e3660046149f3565b6000546001600160a01b0391821691161490565b34801561096e57600080fd5b50604051601281526020016106e8565b34801561098a57600080fd5b506106de6118c5565b34801561099f57600080fd5b506107296109ae366004614be3565b6118cf565b3480156109bf57600080fd5b5061076d6109ce3660046149a5565b611910565b3480156109df57600080fd5b506106de60125481565b3480156109f557600080fd5b5060255461076d9060ff1681565b348015610a0f57600080fd5b5061076d610a1e3660046149f3565b6001600160a01b03166000908152600a602052604090205460ff1690565b348015610a4857600080fd5b50610729610a57366004614c00565b611932565b348015610a6857600080fd5b50601c54610a7c906001600160a01b031681565b6040516001600160a01b0390911681526020016106e8565b348015610aa057600080fd5b5061076d610aaf3660046149f3565b600c6020526000908152604090205460ff1681565b348015610ad057600080fd5b50610729610adf366004614b5d565b6119a7565b348015610af057600080fd5b506106de610aff366004614c5c565b6119b4565b348015610b1057600080fd5b5061076d610b1f3660046149f3565b600d6020526000908152604090205460ff1681565b348015610b4057600080fd5b50610729610b4f366004614b5d565b611a3b565b348015610b6057600080fd5b50610729610b6f366004614ba2565b611ae6565b348015610b8057600080fd5b506106de60285481565b348015610b9657600080fd5b506106de610ba53660046149f3565b611bf1565b348015610bb657600080fd5b50466106de565b348015610bc957600080fd5b506106de60265481565b348015610bdf57600080fd5b506106de60295481565b348015610bf557600080fd5b506106de602e5481565b348015610c0b57600080fd5b50610729610c1a366004614be3565b611cad565b348015610c2b57600080fd5b50610729610c3a366004614a10565b611d04565b348015610c4b57600080fd5b50610729610c5a366004614b5d565b611d54565b348015610c6b57600080fd5b50610729610c7a366004614cd6565b611e13565b348015610c8b57600080fd5b506106de60145481565b348015610ca157600080fd5b50602f5461076d9060ff1681565b348015610cbb57600080fd5b506106de60275481565b348015610cd157600080fd5b506106de60165481565b348015610ce757600080fd5b506106de610cf63660046149f3565b61216c565b348015610d0757600080fd5b506106de610d16366004614c5c565b612187565b348015610d2757600080fd5b50610729610d36366004614d42565b6121c2565b348015610d4757600080fd5b50610729610d563660046149a5565b612280565b348015610d6757600080fd5b506106de610d763660046149f3565b612295565b348015610d8757600080fd5b50610729610d96366004614b5d565b6122b5565b348015610da757600080fd5b506106de60135481565b348015610dbd57600080fd5b506106de601e5481565b348015610dd357600080fd5b506106de601f5481565b348015610de957600080fd5b506106de601d5481565b348015610dff57600080fd5b50610740612361565b348015610e1457600080fd5b506106de60115481565b348015610e2a57600080fd5b50610729610e393660046149f3565b612370565b348015610e4a57600080fd5b50610729610e59366004614b5d565b612414565b348015610e6a57600080fd5b5061074061243e565b348015610e7f57600080fd5b5061076d610e8e3660046149a5565b6124cc565b348015610e9f57600080fd5b50601054610a7c906001600160a01b031681565b348015610ebf57600080fd5b5061076d610ece3660046149a5565b612552565b348015610edf57600080fd5b50601b54610a7c906001600160a01b031681565b348015610eff57600080fd5b50610729612568565b348015610f1457600080fd5b50610729610f23366004614d8d565b612594565b348015610f3457600080fd5b50610729610f43366004614b28565b612625565b348015610f5457600080fd5b5061076d61267a565b348015610f6957600080fd5b50610729610f783660046149f3565b6126f7565b348015610f8957600080fd5b506106de602a5481565b348015610f9f57600080fd5b50610a7c612748565b348015610fb457600080fd5b5060255461076d9062010000900460ff1681565b348015610fd457600080fd5b50610fdd612752565b6040516106e89190614e18565b348015610ff657600080fd5b50610fdd6127d3565b34801561100b57600080fd5b50601954610a7c906001600160a01b031681565b34801561102b57600080fd5b5061072961103a366004614e2b565b612818565b34801561104b57600080fd5b50610fdd61105a3660046149f3565b6128f3565b34801561106b57600080fd5b50610a7c61107a3660046149f3565b612975565b34801561108b57600080fd5b5061072961109a366004614be3565b6129f4565b3480156110ab57600080fd5b506107296110ba366004614e60565b612a33565b3480156110cb57600080fd5b506106de6110da366004614b5d565b612b97565b3480156110eb57600080fd5b506106de612bd7565b34801561110057600080fd5b5061072961110f366004614ed7565b612c70565b34801561112057600080fd5b506106de60245481565b34801561113657600080fd5b50602b54610a7c906001600160a01b031681565b34801561115657600080fd5b506106de611165366004614c5c565b612cad565b34801561117657600080fd5b50602d546001600160a01b0316610a7c565b34801561119457600080fd5b506107296111a3366004614f23565b612cd8565b3480156111b457600080fd5b506107296111c3366004614a10565b612d49565b3480156111d457600080fd5b506106de6111e33660046149f3565b600e6020526000908152604090205481565b34801561120157600080fd5b506106de6112103660046149f3565b612e01565b34801561122157600080fd5b506106de60235481565b34801561123757600080fd5b50601a54610a7c906001600160a01b031681565b34801561125757600080fd5b506107296112663660046149f3565b612e7f565b34801561127757600080fd5b506106de60205481565b34801561128d57600080fd5b506106de60155481565b3480156112a357600080fd5b50610729612ed8565b3480156112b857600080fd5b5061076d6112c73660046149f3565b600b6020526000908152604090205460ff1681565b3480156112e857600080fd5b506107296112f73660046149f3565b612f5e565b34801561130857600080fd5b506106de611317366004614be3565b612fa9565b34801561132857600080fd5b506107296113373660046149f3565b612fc1565b34801561134857600080fd5b50610729611357366004614f41565b613082565b34801561136857600080fd5b50610729611377366004614a10565b6130f0565b34801561138857600080fd5b50600f54610a7c906001600160a01b031681565b3480156113a857600080fd5b5061076d6113b73660046149f3565b613229565b6113c533613229565b6113ea5760405162461bcd60e51b81526004016113e190614f66565b60405180910390fd5b6025805460ff1916851515908117909155602684905560006027556028839055602982905543602a5560408051918252602082018590528101839052606081018290527f8f71cb3c94d1405ce5d796ad5bc01eb65a2fb5cec3da311281961561495b29189060800160405180910390a150505050565b60606005805461146f90614f8b565b80601f016020809104026020016040519081016040528092919081815260200182805461149b90614f8b565b80156114e85780601f106114bd576101008083540402835291602001916114e8565b820191906000526020600020905b8154815290600101906020018083116114cb57829003601f168201915b5050505050905090565b600033611500818585613253565b5060019392505050565b60008261151683612b97565b119392505050565b602d54604051630afbf02f60e11b81526001600160a01b038381166004830152909116906315f7e05e906024015b600060405180830381600087803b15801561156657600080fd5b505af115801561157a573d6000803e3d6000fd5b5050505050565b61158a33613229565b6115a65760405162461bcd60e51b81526004016113e190614f66565b6001600160a01b03919091166000908152600b60205260409020805460ff1916911515919091179055565b602d5460405163031c3ddb60e11b815233916001600160a01b0316906306387bb6906116039084908690600401614fc0565b602060405180830381600087803b15801561161d57600080fd5b505af1158015611631573d6000803e3d6000fd5b505050506040513d601f19601f820116820180604052508101906116559190614fe4565b506001600160a01b03166000908152600e6020526040902042905550565b6000546001600160a01b0316331461169d5760405162461bcd60e51b81526004016113e190615001565b601a5447906001600160a01b03166108fc60646116ba8585615037565b6116c49190615056565b6040518115909202916000818181858888f193505050501580156116ec573d6000803e3d6000fd5b505050565b6116fa33613229565b6117165760405162461bcd60e51b81526004016113e190614f66565b601d829055601e81905560408051838152602081018390527fc21e1359a23ff8ffb7a3454a42d6b9a0362845fae128daed638742e345906de791015b60405180910390a15050565b61176733613229565b6117835760405162461bcd60e51b81526004016113e190614f66565b600261178f8385615056565b1115801561179c57508183115b6117a557600080fd5b601f839055602082815560228290556040805185815291820184905281018290527f59fe705c4edde2295bdc75debd52cc95211ab9b77adb88f3135f26ed130801c69060600160405180910390a1505050565b600033611806858285613377565b6118118585856133eb565b9150505b9392505050565b600061184361182b600061216c565b61183d61183961dead61216c565b6004545b906137b9565b905090565b602d5460408051632e7b1f2960e01b815290516000926001600160a01b031691632e7b1f29916004808301926020929190829003018186803b15801561188d57600080fd5b505afa1580156118a1573d6000803e3d6000fd5b505050506040513d601f19601f820116820180604052508101906118439190615078565b60006118436137c5565b6118d833613229565b6118f45760405162461bcd60e51b81526004016113e190614f66565b60258054911515620100000262ff000019909216919091179055565b6000336115008185856119238383612cad565b61192d9190615091565b613253565b61193b33613229565b6119575760405162461bcd60e51b81526004016113e190614f66565b601980546001600160a01b039586166001600160a01b031991821617909155601a805494861694821694909417909355601b805492851692841692909217909155601c8054919093169116179055565b6119b133826138ec565b50565b602d546040516342fa818760e01b81526001600160a01b038481166004830152838116602483015260009216906342fa8187906044015b60206040518083038186803b158015611a0357600080fd5b505afa158015611a17573d6000803e3d6000fd5b505050506040513d601f19601f820116820180604052508101906118159190615078565b6000546001600160a01b03163314611a655760405162461bcd60e51b81526004016113e190615001565b80471015611ab55760405162461bcd60e51b815260206004820152601860248201527f696e73756666696369656e7420424e422062616c616e6365000000000000000060448201526064016113e1565b604051339082156108fc029083906000818181858888f19350505050158015611ae2573d6000803e3d6000fd5b5050565b6000546001600160a01b03163314611b105760405162461bcd60e51b81526004016113e190615001565b6001600160a01b038316301415611b695760405162461bcd60e51b815260206004820152601d60248201527f43616e6e6f74207472616e73666572206f757420546f6b656e3132332100000060448201526064016113e1565b60405163a9059cbb60e01b81526001600160a01b0383811660048301526024820183905284169063a9059cbb90604401602060405180830381600087803b158015611bb357600080fd5b505af1158015611bc7573d6000803e3d6000fd5b505050506040513d601f19601f82011682018060405250810190611beb9190614fe4565b50505050565b602d54604051634c9efc6360e11b81526001600160a01b038381166004830152600092839291169063993df8c69060240160206040518083038186803b158015611c3a57600080fd5b505afa158015611c4e573d6000803e3d6000fd5b505050506040513d601f19601f82011682018060405250810190611c7291906150a9565b9050806001600160a01b031663997664d76040518163ffffffff1660e01b815260040160206040518083038186803b158015611a0357600080fd5b611cb633613229565b611cd25760405162461bcd60e51b81526004016113e190614f66565b602d5460405163329f51c560e11b815282151560048201526001600160a01b039091169063653ea38a9060240161154c565b611d0d33613229565b611d295760405162461bcd60e51b81526004016113e190614f66565b6001600160a01b03919091166000908152600c60205260409020805460ff1916911515919091179055565b611d5d33613229565b611d795760405162461bcd60e51b81526004016113e190614f66565b602d5460405163d40153cf60e01b8152600481018390526001600160a01b039091169063d40153cf90602401600060405180830381600087803b158015611dbf57600080fd5b505af1158015611dd3573d6000803e3d6000fd5b505050507f0323f8ca35a984206a93388aa69d4000590781cbf7f4cc0a8918effa6c9565da81604051611e0891815260200190565b60405180910390a150565b6000546001600160a01b03163314611e3d5760405162461bcd60e51b81526004016113e190615001565b6000838214611e9f5760405162461bcd60e51b815260206004820152602860248201527f4d69736d61746368206265747765656e204164647265737320616e6420746f6b604482015267195b8818dbdd5b9d60c21b60648201526084016113e1565b60005b84811015611ee257838382818110611ebc57611ebc6150c6565b9050602002013582611ece9190615091565b915080611eda816150dc565b915050611ea2565b5080611eed3361216c565b1015611f4b5760405162461bcd60e51b815260206004820152602760248201527f4e6f7420656e6f75676820746f6b656e7320696e2077616c6c657420666f7220604482015266061697264726f760cc1b60648201526084016113e1565b60005b848110156120c957611f9f33878784818110611f6c57611f6c6150c6565b9050602002016020810190611f8191906149f3565b868685818110611f9357611f936150c6565b90506020020135613a3a565b50602554610100900460ff16156120b757600d6000878784818110611fc657611fc66150c6565b9050602002016020810190611fdb91906149f3565b6001600160a01b0316815260208101919091526040016000205460ff166120b757602d546001600160a01b03166314b6ca9687878481811061201f5761201f6150c6565b905060200201602081019061203491906149f3565b61205e898986818110612049576120496150c6565b9050602002016020810190610cf691906149f3565b6040516001600160e01b031960e085901b1681526001600160a01b0390921660048301526024820152604401600060405180830381600087803b1580156120a457600080fd5b505af19250505080156120b5575060015b505b806120c1816150dc565b915050611f4e565b50602554610100900460ff161561157a57336000908152600d602052604090205460ff1661157a57602d546001600160a01b03166314b6ca963361210c8161216c565b6040516001600160e01b031960e085901b1681526001600160a01b0390921660048301526024820152604401600060405180830381600087803b15801561215257600080fd5b505af1925050508015612163575060015b61157a5761157a565b6001600160a01b031660009081526002602052604090205490565b602d54604051633b9938c560e11b81526001600160a01b03848116600483015283811660248301526000921690637732718a906044016119eb565b6121cb33613229565b6121e75760405162461bcd60e51b81526004016113e190614f66565b602d546040516379c7a9dd60e01b81526001600160a01b03858116600483015284811660248301528381166044830152909116906379c7a9dd90606401602060405180830381600087803b15801561223e57600080fd5b505af1158015612252573d6000803e3d6000fd5b505050506040513d601f19601f820116820180604052508101906122769190614fe4565b5050426024555050565b61228b823383613377565b611ae282826138ec565b6001600160a01b0381166000908152600760205260408120545b92915050565b6000546001600160a01b031633146122df5760405162461bcd60e51b81526004016113e190615001565b600381101561233b5760405162461bcd60e51b815260206004820152602260248201527f4d61782077616c6c65742063616e206e6f74206265206c657373207468616e20604482015261332560f01b60648201526084016113e1565b60648161234760045490565b6123519190615037565b61235b9190615056565b60235550565b60606006805461146f90614f8b565b61237933613229565b6123955760405162461bcd60e51b81526004016113e190614f66565b602d54604051639a236fd560e01b81526001600160a01b03838116600483015290911690639a236fd590602401602060405180830381600087803b1580156123dc57600080fd5b505af11580156123f0573d6000803e3d6000fd5b505050506040513d601f19601f82011682018060405250810190611ae29190614fe4565b61241d33613229565b6124395760405162461bcd60e51b81526004016113e190614f66565b602e55565b6009805461244b90614f8b565b80601f016020809104026020016040519081016040528092919081815260200182805461247790614f8b565b80156124c45780601f10612499576101008083540402835291602001916124c4565b820191906000526020600020905b8154815290600101906020018083116124a757829003601f168201915b505050505081565b600033816124da8286612cad565b90508381101561253a5760405162461bcd60e51b815260206004820152602560248201527f45524332303a2064656372656173656420616c6c6f77616e63652062656c6f77604482015264207a65726f60d81b60648201526084016113e1565b6125478286868403613253565b506001949350505050565b6000336125608185856133eb565b949350505050565b61257133613229565b61258d5760405162461bcd60e51b81526004016113e190614f66565b6000602155565b6000546001600160a01b031633146125be5760405162461bcd60e51b81526004016113e190615001565b60005b82518110156116ec5781600a60008584815181106125e1576125e16150c6565b6020908102919091018101516001600160a01b03168252810191909152604001600020805460ff19169115159190911790558061261d816150dc565b9150506125c1565b61262e33613229565b61264a5760405162461bcd60e51b81526004016113e190614f66565b602d54604051635a2c228d60e11b81526001600160a01b039091169063b458451a9061154c908490600401614e18565b602d5460408051635a3738b960e11b815290516000926001600160a01b03169163b46e7172916004808301926020929190829003018186803b1580156126bf57600080fd5b505afa1580156126d3573d6000803e3d6000fd5b505050506040513d601f19601f820116820180604052508101906118439190614fe4565b6000546001600160a01b031633146127215760405162461bcd60e51b81526004016113e190615001565b6001600160a01b03166000908152600160208190526040909120805460ff19169091179055565b6000611843613a47565b602d546040805163c44b20a760e01b815290516060926001600160a01b03169163c44b20a7916004808301926000929190829003018186803b15801561279757600080fd5b505afa1580156127ab573d6000803e3d6000fd5b505050506040513d6000823e601f3d908101601f1916820160405261184391908101906150f7565b602d546040805163c322a35560e01b815290516060926001600160a01b03169163c322a355916004808301926000929190829003018186803b15801561279757600080fd5b61282133613229565b61283d5760405162461bcd60e51b81526004016113e190614f66565b602d5460405163335e3cbf60e21b81526001600160a01b03858116600483015260248201859052604482018490529091169063cd78f2fc90606401600060405180830381600087803b15801561289257600080fd5b505af11580156128a6573d6000803e3d6000fd5b505060408051858152602081018590526001600160a01b03871693507f8e38df81612a4dab832e268111363a2b3578a1ae351f9e5a4658fb31c1dc7f7292500160405180910390a2505050565b602d5460405163cdfc997f60e01b81526001600160a01b038381166004830152606092169063cdfc997f9060240160006040518083038186803b15801561293957600080fd5b505afa15801561294d573d6000803e3d6000fd5b505050506040513d6000823e601f3d908101601f191682016040526122af91908101906150f7565b602d54604051634c9efc6360e11b81526001600160a01b038381166004830152600092169063993df8c6906024015b60206040518083038186803b1580156129bc57600080fd5b505afa1580156129d0573d6000803e3d6000fd5b505050506040513d601f19601f820116820180604052508101906122af91906150a9565b6129fd33613229565b612a195760405162461bcd60e51b81526004016113e190614f66565b602580549115156101000261ff0019909216919091179055565b83421115612a835760405162461bcd60e51b815260206004820152601d60248201527f45524332305065726d69743a206578706972656420646561646c696e6500000060448201526064016113e1565b60007f6e71edae12b1b97f4d1f60370fef10105fa2faae0126114a169c64845d6126c9888888612ab28c613b98565b6040805160208101969096526001600160a01b0394851690860152929091166060840152608083015260a082015260c0810186905260e0016040516020818303038152906040528051906020012090506000612b0d82613bc0565b90506000612b1d82878787613c0e565b9050896001600160a01b0316816001600160a01b031614612b805760405162461bcd60e51b815260206004820152601e60248201527f45524332305065726d69743a20696e76616c6964207369676e6174757265000060448201526064016113e1565b612b8b8a8a8a613253565b50505050505050505050565b60006122af612ba461181c565b601054612bd190612bca90600290612bc4906001600160a01b031661216c565b90613c36565b8590613c36565b90613c42565b600042612bf160225460215461324790919063ffffffff16565b1115612c69576000612c144261183d60225460215461324790919063ffffffff16565b90506000612c3b60175461183d602054612bd1601f54601754613c3690919063ffffffff16565b9050612c62612c59602254612bd18585613c3690919063ffffffff16565b60175490613247565b9250505090565b5060175490565b612c7933613229565b612c955760405162461bcd60e51b81526004016113e190614f66565b612ca487878787878787613c4e565b50505050505050565b6001600160a01b03918216600090815260036020908152604080832093909416825291909152205490565b612ce133613229565b612cfd5760405162461bcd60e51b81526004016113e190614f66565b602f805460ff1916831515908117909155603082905560408051918252602082018390527f30e0f7c488b6c70123097f13cf387e140b0e0b8c9d9e3473e502f35b035d377c9101611752565b6000546001600160a01b03163314612d735760405162461bcd60e51b81526004016113e190615001565b6001600160a01b0382166000908152600a602052604090205460ff1615158115151415612dd65760405162461bcd60e51b815260206004820152601160248201527015985b1d5948185b1c9958591e481cd95d607a1b60448201526064016113e1565b6001600160a01b03919091166000908152600a60205260409020805460ff1916911515919091179055565b602d54604051637267bffb60e11b81526001600160a01b038381166004830152600092169063e4cf7ff69060240160206040518083038186803b158015612e4757600080fd5b505afa158015612e5b573d6000803e3d6000fd5b505050506040513d601f19601f820116820180604052508101906122af9190615078565b6000546001600160a01b03163314612ea95760405162461bcd60e51b81526004016113e190615001565b602b80546001600160a01b0319166001600160a01b038316179055612ed242630a4cb800613247565b602c5550565b612ee133613229565b612efd5760405162461bcd60e51b81526004016113e190614f66565b602d60009054906101000a90046001600160a01b03166001600160a01b0316634b2c89986040518163ffffffff1660e01b8152600401600060405180830381600087803b158015612f4d57600080fd5b505af19250505080156119b157505b565b6000546001600160a01b03163314612f885760405162461bcd60e51b81526004016113e190615001565b6001600160a01b03166000908152600160205260409020805460ff19169055565b60008115612fb9576122af612bd7565b505060175490565b6000546001600160a01b03163314612feb5760405162461bcd60e51b81526004016113e190615001565b612ff481613d1c565b61301c57604051631cc3481160e01b81526001600160a01b03821660048201526024016113e1565b600080546001600160a01b0319166001600160a01b038316908117825580825260016020818152604093849020805460ff191690921790915591519081527f04dba622d284ed0014ee4b9a6a68386be1a4c08a4913ae272de89199cc6861639101611e08565b61308b33613229565b6130a75760405162461bcd60e51b81526004016113e190614f66565b6130b38261dead613d4e565b8015611ae257426021556022546040519081527f39d2389ec5c1fa77b2c0d374bc61b6d7bd97ccba280fcdeb4e9c7644898d7c3a90602001611752565b6130f933613229565b6131155760405162461bcd60e51b81526004016113e190614f66565b6001600160a01b038216301480159061313c57506010546001600160a01b03838116911614155b61314557600080fd5b6001600160a01b0382166000908152600d60205260409020805460ff191682158015919091179091556131dd57602d54604051630a5b654b60e11b81526001600160a01b03848116600483015260006024830152909116906314b6ca96906044015b600060405180830381600087803b1580156131c157600080fd5b505af11580156131d5573d6000803e3d6000fd5b505050505050565b602d546001600160a01b03166314b6ca96836131f88161216c565b6040516001600160e01b031960e085901b1681526001600160a01b03909216600483015260248201526044016131a7565b6001600160a01b031660009081526001602052604090205460ff1690565b60006118158284615091565b6001600160a01b0383166132b55760405162461bcd60e51b8152602060048201526024808201527f45524332303a20617070726f76652066726f6d20746865207a65726f206164646044820152637265737360e01b60648201526084016113e1565b6001600160a01b0382166133165760405162461bcd60e51b815260206004820152602260248201527f45524332303a20617070726f766520746f20746865207a65726f206164647265604482015261737360f01b60648201526084016113e1565b6001600160a01b0383811660008181526003602090815260408083209487168084529482529182902085905590518481527f8c5be1e5ebec7d5bd14f71427d1e84f3dd0314c0f7b2291e5b200ac8c7c3b925910160405180910390a3505050565b60006133838484612cad565b90506000198114611beb57818110156133de5760405162461bcd60e51b815260206004820152601d60248201527f45524332303a20696e73756666696369656e7420616c6c6f77616e636500000060448201526064016113e1565b611beb8484848403613253565b6001600160a01b0383166000908152600a602052604081205460ff1615801561342d57506001600160a01b0383166000908152600a602052604090205460ff16155b6134695760405162461bcd60e51b815260206004820152600d60248201526c165bdd48185c99481848189bdd609a1b60448201526064016113e1565b60315460ff16156134865761347f848484613a3a565b9050611815565b602554610100900460ff1680156134b657506001600160a01b03841660009081526001602052604090205460ff16155b80156134cb57506001600160a01b0383163014155b80156134e257506001600160a01b03831661dead14155b80156134fc57506010546001600160a01b03848116911614155b80156135165750601a546001600160a01b03848116911614155b801561353057506019546001600160a01b03848116911614155b156135905760006135408461216c565b6023549091506135508483615091565b111561358e57806135618482615091565b602354604051635b66e4db60e01b81526004810193909352602483019190915260448201526064016113e1565b505b613598613ec6565b156135a5576135a5613f0f565b6135ad61439d565b156135ba576135ba6143f8565b6025548290610100900460ff1615613601576001600160a01b0385166000908152600c602052604090205460ff16156135f357826135fe565b6135fe858585614433565b90505b602554610100900460ff16156137ae576001600160a01b0385166000908152600d602052604090205460ff166136a557602d546001600160a01b03166314b6ca968661364c8161216c565b6040516001600160e01b031960e085901b1681526001600160a01b0390921660048301526024820152604401600060405180830381600087803b15801561369257600080fd5b505af19250505080156136a3575060015b505b6001600160a01b0384166000908152600d602052604090205460ff1661373957602d546001600160a01b03166314b6ca96856136e08161216c565b6040516001600160e01b031960e085901b1681526001600160a01b0390921660048301526024820152604401600060405180830381600087803b15801561372657600080fd5b505af1925050508015613737575060015b505b60255462010000900460ff166137ae57602d54602e546040516001624d3b8760e01b031981526001600160a01b039092169163ffb2c479916137819160040190815260200190565b600060405180830381600087803b15801561379b57600080fd5b505af19250505080156137ac575060015b505b61254785858361447c565b60006118158284615191565b6000306001600160a01b037f00000000000000000000000000000000000000000000000000000000000000001614801561381e57507f000000000000000000000000000000000000000000000000000000000000000046145b1561384857507f000000000000000000000000000000000000000000000000000000000000000090565b50604080517f00000000000000000000000000000000000000000000000000000000000000006020808301919091527f0000000000000000000000000000000000000000000000000000000000000000828401527f000000000000000000000000000000000000000000000000000000000000000060608301524660808301523060a0808401919091528351808403909101815260c0909201909252805191012090565b6001600160a01b03821661394c5760405162461bcd60e51b815260206004820152602160248201527f45524332303a206275726e2066726f6d20746865207a65726f206164647265736044820152607360f81b60648201526084016113e1565b6001600160a01b038216600090815260026020526040902054818110156139c05760405162461bcd60e51b815260206004820152602260248201527f45524332303a206275726e20616d6f756e7420657863656564732062616c616e604482015261636560f01b60648201526084016113e1565b6001600160a01b03831660009081526002602052604081208383039055600480548492906139ef908490615191565b90915550506040518281526000906001600160a01b038516907fddf252ad1be2c89b69c2b068fc378daa952ba7f163c4a11628f55a4df523b3ef9060200160405180910390a3505050565b600061150084848461447c565b600080600f60009054906101000a90046001600160a01b03166001600160a01b031663c45a01556040518163ffffffff1660e01b815260040160206040518083038186803b158015613a9857600080fd5b505afa158015613aac573d6000803e3d6000fd5b505050506040513d601f19601f82011682018060405250810190613ad091906150a9565b6001600160a01b031663e6a4390530600f60009054906101000a90046001600160a01b03166001600160a01b031663ad5c46486040518163ffffffff1660e01b815260040160206040518083038186803b158015613b2d57600080fd5b505afa158015613b41573d6000803e3d6000fd5b505050506040513d601f19601f82011682018060405250810190613b6591906150a9565b6040516001600160e01b031960e085901b1681526001600160a01b039283166004820152911660248201526044016129a4565b6001600160a01b03811660009081526007602052604090208054600181018255905b50919050565b60006122af613bcd6137c5565b8360405161190160f01b6020820152602281018390526042810182905260009060620160405160208183030381529060405280519060200120905092915050565b6000806000613c1f8787878761464a565b91509150613c2c81614737565b5095945050505050565b60006118158284615037565b60006118158284615056565b601187905560128690556013859055601484905560158390556016829055613c8483613c7e868189818d8d613247565b90613247565b6017819055613c939083613247565b6017556018819055613ca6600482615056565b60175410612ca45760405162461bcd60e51b815260206004820152603b60248201527f546f74616c206665652073686f756c64206e6f7420626520677265617465722060448201527f7468616e20312f34206f66206665652064656e6f6d696e61746f72000000000060648201526084016113e1565b602c5460009081904211801590613d405750602b546001600160a01b038481169116145b156122af5750600192915050565b6031805460ff191660011790556040805160028082526060820183526000926020830190803683375050600f54604080516315ab88c960e31b815290519394506001600160a01b039091169263ad5c464892506004808301926020929190829003018186803b158015613dc057600080fd5b505afa158015613dd4573d6000803e3d6000fd5b505050506040513d601f19601f82011682018060405250810190613df891906150a9565b81600081518110613e0b57613e0b6150c6565b60200260200101906001600160a01b031690816001600160a01b0316815250503081600181518110613e3f57613e3f6150c6565b6001600160a01b039283166020918202929092010152600f5460405163b6f9de9560e01b815291169063b6f9de95908590613e85906000908690889042906004016151a8565b6000604051808303818588803b158015613e9e57600080fd5b505af1158015613eb2573d6000803e3d6000fd5b50506031805460ff19169055505050505050565b6010546000906001600160a01b03163314801590613ee7575060315460ff16155b8015613ef55750602f5460ff165b80156118435750603054613f083061216c565b1015905090565b6031805460ff19166001179055601d54601e54600091613f2e9161150a565b613f3a57601154613f3d565b60005b90506000613f616002612bd1601754612bd186603054613c3690919063ffffffff16565b90506000613f7a826030546137b990919063ffffffff16565b60408051600280825260608201835292935060009290916020830190803683370190505090503081600081518110613fb457613fb46150c6565b6001600160a01b03928316602091820292909201810191909152600f54604080516315ab88c960e31b81529051919093169263ad5c4648926004808301939192829003018186803b15801561400857600080fd5b505afa15801561401c573d6000803e3d6000fd5b505050506040513d601f19601f8201168201806040525081019061404091906150a9565b81600181518110614053576140536150c6565b6001600160a01b039283166020918202929092010152600f5460405163791ac94760e01b81524792919091169063791ac9479061409d9086906000908790309042906004016151dd565b600060405180830381600087803b1580156140b757600080fd5b505af11580156140cb573d6000803e3d6000fd5b5050505060006140e482476137b990919063ffffffff16565b905060006140ff6140f6886002613c42565b601754906137b9565b905060006141146002612bd18481878d613c36565b9050600061413183612bd160135487613c3690919063ffffffff16565b9050600061414e84612bd160145488613c3690919063ffffffff16565b9050600061416b85612bd160155489613c3690919063ffffffff16565b9050600061418886612bd16016548a613c3690919063ffffffff16565b9050602d60009054906101000a90046001600160a01b03166001600160a01b031663d0e30db0856040518263ffffffff1660e01b81526004016000604051808303818588803b1580156141da57600080fd5b505af1935050505080156141ec575060015b50601a546040516001600160a01b039091169084156108fc029085906000818181858888f19350505050158015614227573d6000803e3d6000fd5b50601b546040516001600160a01b039091169083156108fc029084906000818181858888f19350505050158015614262573d6000803e3d6000fd5b50601c546040516001600160a01b039091169082156108fc029083906000818181858888f1935050505015801561429d573d6000803e3d6000fd5b508a1561438557600f5460195460405163f305d71960e01b8152306004820152602481018e905260006044820181905260648201526001600160a01b0391821660848201524260a482015291169063f305d71990879060c4016060604051808303818588803b15801561430f57600080fd5b505af1158015614323573d6000803e3d6000fd5b50505050506040513d601f19601f820116820180604052508101906143489190615219565b505060408051878152602081018e90527f424db2872186fa7e7afa7a5e902ed3b49a2ef19c2f5431e672462495dd6b450692500160405180910390a15b50506031805460ff1916905550505050505050505050565b6010546000906001600160a01b031633148015906143be575060315460ff16155b80156143cc575060255460ff165b80156143e7575043602954602a546143e49190615091565b11155b801561184357505060285447101590565b61440660285461dead613d4e565b43602a5560285460275461441991613247565b60278190556026541015612f5c576025805460ff19169055565b60185460105460009182916144659190612bd19061445e906001600160a01b03898116911614612fa9565b8690613c36565b905061447285308361447c565b61181183826137b9565b6001600160a01b0383166144e05760405162461bcd60e51b815260206004820152602560248201527f45524332303a207472616e736665722066726f6d20746865207a65726f206164604482015264647265737360d81b60648201526084016113e1565b6001600160a01b0382166145425760405162461bcd60e51b815260206004820152602360248201527f45524332303a207472616e7366657220746f20746865207a65726f206164647260448201526265737360e81b60648201526084016113e1565b6001600160a01b038316600090815260026020526040902054818110156145ba5760405162461bcd60e51b815260206004820152602660248201527f45524332303a207472616e7366657220616d6f756e7420657863656564732062604482015265616c616e636560d01b60648201526084016113e1565b6001600160a01b038085166000908152600260205260408082208585039055918516815290812080548492906145f1908490615091565b92505081905550826001600160a01b0316846001600160a01b03167fddf252ad1be2c89b69c2b068fc378daa952ba7f163c4a11628f55a4df523b3ef8460405161463d91815260200190565b60405180910390a3611beb565b6000807f7fffffffffffffffffffffffffffffff5d576e7357a4501ddfe92f46681b20a0831115614681575060009050600361472e565b8460ff16601b1415801561469957508460ff16601c14155b156146aa575060009050600461472e565b6040805160008082526020820180845289905260ff881692820192909252606081018690526080810185905260019060a0016020604051602081039080840390855afa1580156146fe573d6000803e3d6000fd5b5050604051601f1901519150506001600160a01b0381166147275760006001925092505061472e565b9150600090505b94509492505050565b600081600481111561474b5761474b615247565b14156147545750565b600181600481111561476857614768615247565b14156147b65760405162461bcd60e51b815260206004820152601860248201527f45434453413a20696e76616c6964207369676e6174757265000000000000000060448201526064016113e1565b60028160048111156147ca576147ca615247565b14156148185760405162461bcd60e51b815260206004820152601f60248201527f45434453413a20696e76616c6964207369676e6174757265206c656e6774680060448201526064016113e1565b600381600481111561482c5761482c615247565b14156148855760405162461bcd60e51b815260206004820152602260248201527f45434453413a20696e76616c6964207369676e6174757265202773272076616c604482015261756560f01b60648201526084016113e1565b600481600481111561489957614899615247565b14156119b15760405162461bcd60e51b815260206004820152602260248201527f45434453413a20696e76616c6964207369676e6174757265202776272076616c604482015261756560f01b60648201526084016113e1565b80151581146119b157600080fd5b6000806000806080858703121561491657600080fd5b8435614921816148f2565b966020860135965060408601359560600135945092505050565b600060208083528351808285015260005b818110156149685785810183015185820160400152820161494c565b8181111561497a576000604083870101525b50601f01601f1916929092016040019392505050565b6001600160a01b03811681146119b157600080fd5b600080604083850312156149b857600080fd5b82356149c381614990565b946020939093013593505050565b600080604083850312156149e457600080fd5b50508035926020909101359150565b600060208284031215614a0557600080fd5b813561181581614990565b60008060408385031215614a2357600080fd5b8235614a2e81614990565b91506020830135614a3e816148f2565b809150509250929050565b634e487b7160e01b600052604160045260246000fd5b604051601f8201601f1916810167ffffffffffffffff81118282101715614a8857614a88614a49565b604052919050565b600067ffffffffffffffff821115614aaa57614aaa614a49565b5060051b60200190565b600082601f830112614ac557600080fd5b81356020614ada614ad583614a90565b614a5f565b82815260059290921b84018101918181019086841115614af957600080fd5b8286015b84811015614b1d578035614b1081614990565b8352918301918301614afd565b509695505050505050565b600060208284031215614b3a57600080fd5b813567ffffffffffffffff811115614b5157600080fd5b61256084828501614ab4565b600060208284031215614b6f57600080fd5b5035919050565b600080600060608486031215614b8b57600080fd5b505081359360208301359350604090920135919050565b600080600060608486031215614bb757600080fd5b8335614bc281614990565b92506020840135614bd281614990565b929592945050506040919091013590565b600060208284031215614bf557600080fd5b8135611815816148f2565b60008060008060808587031215614c1657600080fd5b8435614c2181614990565b93506020850135614c3181614990565b92506040850135614c4181614990565b91506060850135614c5181614990565b939692955090935050565b60008060408385031215614c6f57600080fd5b8235614c7a81614990565b91506020830135614a3e81614990565b60008083601f840112614c9c57600080fd5b50813567ffffffffffffffff811115614cb457600080fd5b6020830191508360208260051b8501011115614ccf57600080fd5b9250929050565b60008060008060408587031215614cec57600080fd5b843567ffffffffffffffff80821115614d0457600080fd5b614d1088838901614c8a565b90965094506020870135915080821115614d2957600080fd5b50614d3687828801614c8a565b95989497509550505050565b600080600060608486031215614d5757600080fd5b8335614d6281614990565b92506020840135614d7281614990565b91506040840135614d8281614990565b809150509250925092565b60008060408385031215614da057600080fd5b823567ffffffffffffffff811115614db757600080fd5b614dc385828601614ab4565b9250506020830135614a3e816148f2565b600081518084526020808501945080840160005b83811015614e0d5781516001600160a01b031687529582019590820190600101614de8565b509495945050505050565b6020815260006118156020830184614dd4565b600080600060608486031215614e4057600080fd5b8335614e4b81614990565b95602085013595506040909401359392505050565b600080600080600080600060e0888a031215614e7b57600080fd5b8735614e8681614990565b96506020880135614e9681614990565b95506040880135945060608801359350608088013560ff81168114614eba57600080fd5b9699959850939692959460a0840135945060c09093013592915050565b600080600080600080600060e0888a031215614ef257600080fd5b505085359760208701359750604087013596606081013596506080810135955060a0810135945060c0013592509050565b60008060408385031215614f3657600080fd5b82356149c3816148f2565b60008060408385031215614f5457600080fd5b823591506020830135614a3e816148f2565b6020808252600b908201526a085055551213d49256915160aa1b604082015260600190565b600181811c90821680614f9f57607f821691505b60208210811415613bba57634e487b7160e01b600052602260045260246000fd5b6001600160a01b038316815260406020820181905260009061256090830184614dd4565b600060208284031215614ff657600080fd5b8151611815816148f2565b60208082526006908201526510a7aba722a960d11b604082015260600190565b634e487b7160e01b600052601160045260246000fd5b600081600019048311821515161561505157615051615021565b500290565b60008261507357634e487b7160e01b600052601260045260246000fd5b500490565b60006020828403121561508a57600080fd5b5051919050565b600082198211156150a4576150a4615021565b500190565b6000602082840312156150bb57600080fd5b815161181581614990565b634e487b7160e01b600052603260045260246000fd5b60006000198214156150f0576150f0615021565b5060010190565b6000602080838503121561510a57600080fd5b825167ffffffffffffffff81111561512157600080fd5b8301601f8101851361513257600080fd5b8051615140614ad582614a90565b81815260059190911b8201830190838101908783111561515f57600080fd5b928401925b8284101561518657835161517781614990565b82529284019290840190615164565b979650505050505050565b6000828210156151a3576151a3615021565b500390565b8481526080602082015260006151c16080830186614dd4565b6001600160a01b03949094166040830152506060015292915050565b85815284602082015260a0604082015260006151fc60a0830186614dd4565b6001600160a01b0394909416606083015250608001529392505050565b60008060006060848603121561522e57600080fd5b8351925060208401519150604084015190509250925092565b634e487b7160e01b600052602160045260246000fdfea26469706673582212200360a342bc20d654cb3cdf9baeeff2c466c4d732c2ccd243e9de7ea329afa74164736f6c63430008090033608060405260036007556008805460ff1916600117905534801561002257600080fd5b50600080546001600160a01b031990811633179091556001805490911632179055613311806100526000396000f3fe608060405260043610620001a15760003560e01c8063a2b743c911620000e2578063cdfc997f1162000095578063e3976d02116200006c578063e3976d021462000519578063e4cf7ff6146200053e578063fa5e327c1462000563578063ffb2c479146200059a57600080fd5b8063cdfc997f14620004c5578063d0e30db014620004ea578063d40153cf14620004f457600080fd5b8063a2b743c9146200040b578063b458451a1462000422578063b46e71721462000447578063c322a3551462000461578063c44b20a71462000488578063cd78f2fc14620004a057600080fd5b80634b2c8998116200015857806379c7a9dd116200012f57806379c7a9dd1462000312578063993df8c614620003375780639a236fd51462000374578063a0662d47146200039957600080fd5b80634b2c899814620002b0578063653ea38a14620002c85780637732718a14620002ed57600080fd5b806306387bb614620001a657806314b6ca9614620001e057806315f7e05e14620002075780632e7b1f29146200022c57806342fa8187146200024d578063459f70921462000272575b600080fd5b348015620001b357600080fd5b50620001cb620001c536600462001d86565b620005bf565b60405190151581526020015b60405180910390f35b348015620001ed57600080fd5b5062000205620001ff36600462001ddc565b62000828565b005b3480156200021457600080fd5b50620002056200022636600462001e0b565b62000aa1565b3480156200023957600080fd5b506007545b604051908152602001620001d7565b3480156200025a57600080fd5b506200023e6200026c36600462001e2b565b62000b07565b3480156200027f57600080fd5b50620002976200029136600462001e69565b62000b9f565b6040516001600160a01b039091168152602001620001d7565b348015620002bd57600080fd5b506200020562000bca565b348015620002d557600080fd5b5062000205620002e736600462001e83565b62000c9d565b348015620002fa57600080fd5b506200023e6200030c36600462001e2b565b62000cc8565b3480156200031f57600080fd5b50620001cb6200033136600462001ea7565b62000d0a565b3480156200034457600080fd5b50620002976200035636600462001e0b565b6001600160a01b039081166000908152600260205260409020541690565b3480156200038157600080fd5b50620001cb6200039336600462001e0b565b620011f0565b348015620003a657600080fd5b50620003e5620003b836600462001e0b565b60046020526000908152604090208054600182015460039092015490916001600160a01b03169060ff1683565b604080519384526001600160a01b039092166020840152151590820152606001620001d7565b3480156200041857600080fd5b506003546200023e565b3480156200042f57600080fd5b50620002056200044136600462001ef9565b620014a0565b3480156200045457600080fd5b5060085460ff16620001cb565b3480156200046e57600080fd5b506200047962001522565b604051620001d7919062001f3a565b3480156200049557600080fd5b506200047962001586565b348015620004ad57600080fd5b5062000205620004bf36600462001f89565b620015e8565b348015620004d257600080fd5b5062000479620004e436600462001e0b565b6200167b565b62000205620016f6565b3480156200050157600080fd5b50620002056200051336600462001e69565b620017d8565b3480156200052657600080fd5b50620002976200053836600462001e69565b620017f5565b3480156200054b57600080fd5b506200023e6200055d36600462001e0b565b62001806565b3480156200057057600080fd5b50620005886200058236600462001e0b565b6200189a565b604051620001d7949392919062001ff0565b348015620005a757600080fd5b5062000205620005b936600462001e69565b62001962565b6000600754825111156200061a5760405162461bcd60e51b815260206004820152601f60248201527f4d617820437573746f6d205265666c656374696f6e2045786365656465642e0060448201526064015b60405180910390fd5b620006258262001a3a565b620006735760405162461bcd60e51b815260206004820152601b60248201527f41646472657373206e6f7420696e206d6173746572206c6973742e0000000000604482015260640162000611565b81516001600160a01b03841660009081526004602052604081206200069e9160029091019062001b13565b6001600160a01b03841660009081526004602052604090206003015460ff1662000784576005805460018101825560008290527f036b6384b5eca791c62761152d0c79bb0604c104a5fb6f4eb0703f3154bb3db00180546001600160a01b0319166001600160a01b03871617905554156200074357600554620007249060019062002059565b6001600160a01b0385166000908152600460205260409020556200075d565b6001600160a01b0384166000908152600460205260408120555b6001600160a01b0384166000908152600460205260409020600301805460ff191660011790555b60005b818110156200081d5760046000866001600160a01b03166001600160a01b03168152602001908152602001600020600201848281518110620007cd57620007cd62002073565b60209081029190910181015182546001810184556000938452919092200180546001600160a01b0319166001600160a01b0390921691909117905580620008148162002089565b91505062000787565b506001949350505050565b6000546001600160a01b031633146200084057600080fd5b6003546200084e8362001abe565b15620009d45760005b81811015620009ce5760005b6001600160a01b038516600090815260046020526040902060020154811015620009b8576001600160a01b0385166000908152600460205260409020600201805482908110620008b757620008b762002073565b600091825260209091200154600380546001600160a01b039092169184908110620008e657620008e662002073565b6000918252602090912001546001600160a01b03161415620009a35760026000600384815481106200091c576200091c62002073565b6000918252602080832091909101546001600160a01b0390811684529083019390935260409182019020549051630a5b654b60e11b81528783166004820152602481018790529116906314b6ca9690604401600060405180830381600087803b1580156200098957600080fd5b505af11580156200099e573d6000803e3d6000fd5b505050505b80620009af8162002089565b91505062000863565b5080620009c58162002089565b91505062000857565b50505050565b60065460005b8181101562000a99576002600060068381548110620009fd57620009fd62002073565b6000918252602080832091909101546001600160a01b0390811684529083019390935260409182019020549051630a5b654b60e11b81528783166004820152602481018790529116906314b6ca9690604401600060405180830381600087803b15801562000a6a57600080fd5b505af115801562000a7f573d6000803e3d6000fd5b50505050808062000a909062002089565b915050620009da565b50505b505050565b6001600160a01b0380821660009081526002602052604080822054815163787e35e560e11b8152915193169263f0fc6bca9260048084019391929182900301818387803b15801562000af257600080fd5b505af115801562000a99573d6000803e3d6000fd5b6001600160a01b0381811660009081526002602052604080822054905163051fa63360e31b81528584166004820152919216906328fd3198906024015b60206040518083038186803b15801562000b5d57600080fd5b505afa15801562000b72573d6000803e3d6000fd5b505050506040513d601f19601f8201168201806040525081019062000b989190620020a7565b9392505050565b6003818154811062000bb057600080fd5b6000918252602090912001546001600160a01b0316905081565b6000546001600160a01b0316331462000be257600080fd5b60035460005b8181101562000c9957600260006003838154811062000c0b5762000c0b62002073565b60009182526020808320909101546001600160a01b0390811684529083019390935260409182018120548251630965913360e31b81529251931692634b2c899892600480820193929182900301818387803b15801562000c6a57600080fd5b505af115801562000c7f573d6000803e3d6000fd5b50505050808062000c909062002089565b91505062000be8565b5050565b6000546001600160a01b0316331462000cb557600080fd5b6008805460ff1916911515919091179055565b6001600160a01b0382811660009081526002602052604080822054905163abd3775360e01b815284841660048201529192169063abd377539060240162000b44565b600080546001600160a01b0316331462000d2357600080fd5b6001600160a01b03831660009081526002602052604090206003015460ff161562000d915760405162461bcd60e51b815260206004820152601a60248201527f4469737472696275746f7220616c726561647920657869737473000000000000604482015260640162000611565b6000839050600085858560405162000da99062001b36565b6001600160a01b03938416815291831660208301529091166040820152606001604051809103906000f08015801562000de6573d6000803e3d6000fd5b5060038054600180820183557fc2575a0e9e593c00f959f8c92f12db2869c3395a3b0502d05e2516446f71f85b90910180546001600160a01b03199081166001600160a01b038b811691821790935560009081526002602052604090208054909116918516919091179055905491925062000e619162002059565b6001600160a01b038087166000908152600260205260408082206001019390935582516306fdde0360e01b81529251918516926306fdde039260048083019392829003018186803b15801562000eb657600080fd5b505afa15801562000ecb573d6000803e3d6000fd5b505050506040513d6000823e601f3d908101601f1916820160405262000ef59190810190620020c1565b6001600160a01b0386166000908152600260208181526040909220835162000f24949190920192019062001b44565b506001600160a01b03851660009081526002602052604090206003908101805460ff191660011790555415620011e4576000600360008154811062000f6d5762000f6d62002073565b60009182526020808320909101546001600160a01b03908116808452600290925260408084205481516320e5320f60e11b81529151939550909116916341ca641e916004808201928692909190829003018186803b15801562000fcf57600080fd5b505afa15801562000fe4573d6000803e3d6000fd5b505050506040513d6000823e601f3d908101601f191682016040526200100e919081019062002160565b51905060005b81811015620011e0576001600160a01b038084166000908152600260205260408082205481516320e5320f60e11b81529151929316916341ca641e916004808201928692909190829003018186803b1580156200107057600080fd5b505afa15801562001085573d6000803e3d6000fd5b505050506040513d6000823e601f3d908101601f19168201604052620010af919081019062002160565b8281518110620010c357620010c362002073565b6020908102919091018101516001600160a01b0386811660009081526002909352604080842054905163abd3775360e01b81528284166004820152929450169063abd377539060240160206040518083038186803b1580156200112557600080fd5b505afa1580156200113a573d6000803e3d6000fd5b505050506040513d601f19601f82011682018060405250810190620011609190620020a7565b604051630a5b654b60e11b81526001600160a01b03848116600483015260248201839052919250908716906314b6ca9690604401600060405180830381600087803b158015620011af57600080fd5b505af1158015620011c4573d6000803e3d6000fd5b5050505050508080620011d79062002089565b91505062001014565b5050505b50600195945050505050565b600080546001600160a01b031633146200120957600080fd5b6001600160a01b03821660009081526002602052604090206003015460ff166200126e5760405162461bcd60e51b8152602060048201526015602482015274111a5cdd1c9a589d5d1bdc881b9bdd08199bdd5b99605a1b604482015260640162000611565b6001600160a01b03808316600090815260026020818152604080842081516080810183528154909616865260018101549286019290925291810180549394939192840191620012bd9062002205565b80601f0160208091040260200160405190810160405280929190818152602001828054620012eb9062002205565b80156200133c5780601f1062001310576101008083540402835291602001916200133c565b820191906000526020600020905b8154815290600101906020018083116200131e57829003601f168201915b505050918352505060039182015460ff16151560209091015254909150620013679060019062002059565b81602001511462001416576003805460009190620013889060019062002059565b815481106200139b576200139b62002073565b9060005260206000200160009054906101000a90046001600160a01b03169050806003836020015181548110620013d657620013d662002073565b600091825260208083209190910180546001600160a01b0319166001600160a01b0394851617905584810151939092168152600290915260409020600101555b6001600160a01b0383166000908152600260208190526040822080546001600160a01b0319168155600181018390559190620014559083018262001bd3565b506003908101805460ff1916905580548062001475576200147562002242565b600082815260209020600019908201810180546001600160a01b031916905501905550600192915050565b6000546001600160a01b03163314620014b857600080fd5b600754815111156200150d5760405162461bcd60e51b815260206004820152601f60248201527f4d617820437573746f6d205265666c656374696f6e2045786365656465642e00604482015260640162000611565b805162000c9990600690602084019062001c12565b606060038054806020026020016040519081016040528092919081815260200182805480156200157c57602002820191906000526020600020905b81546001600160a01b031681526001909101906020018083116200155d575b5050505050905090565b606060068054806020026020016040519081016040528092919081815260200182805480156200157c576020028201919060005260206000209081546001600160a01b031681526001909101906020018083116200155d575050505050905090565b6000546001600160a01b031633146200160057600080fd5b6001600160a01b03838116600090815260026020526040908190205490516316a4744b60e11b81526004810185905260248101849052911690632d48e89690604401600060405180830381600087803b1580156200165d57600080fd5b505af115801562001672573d6000803e3d6000fd5b50505050505050565b6001600160a01b038116600090815260046020908152604091829020600201805483518184028101840190945280845260609392830182828015620016ea57602002820191906000526020600020905b81546001600160a01b03168152600190910190602001808311620016cb575b50505050509050919050565b6000546001600160a01b031633146200170e57600080fd5b60035460006200171f348362001b05565b905060005b8281101562000a9c57600260006003838154811062001747576200174762002073565b60009182526020808320909101546001600160a01b0390811684529083019390935260409182018120548251630d0e30db60e41b8152925193169263d0e30db0928692600480830193919282900301818588803b158015620017a857600080fd5b505af1158015620017bd573d6000803e3d6000fd5b50505050508080620017cf9062002089565b91505062001724565b6000546001600160a01b03163314620017f057600080fd5b600755565b6006818154811062000bb057600080fd5b6001600160a01b038082166000908152600260209081526040808320548151637578a1d960e01b8152915193941692637578a1d992600480840193919291829003018186803b1580156200185957600080fd5b505afa1580156200186e573d6000803e3d6000fd5b505050506040513d601f19601f82011682018060405250810190620018949190620020a7565b92915050565b60026020819052600091825260409091208054600182015492820180546001600160a01b03909216939291620018d09062002205565b80601f0160208091040260200160405190810160405280929190818152602001828054620018fe9062002205565b80156200194f5780601f1062001923576101008083540402835291602001916200194f565b820191906000526020600020905b8154815290600101906020018083116200193157829003601f168201915b5050506003909301549192505060ff1684565b6000546001600160a01b031633146200197a57600080fd5b60035460005b8181101562000a9c576002600060038381548110620019a357620019a362002073565b6000918252602080832091909101546001600160a01b03908116845290830193909352604091820190205490516001624d3b8760e01b031981526004810186905291169063ffb2c47990602401600060405180830381600087803b15801562001a0b57600080fd5b505af115801562001a20573d6000803e3d6000fd5b50505050808062001a319062002089565b91505062001980565b8051600090600190825b8181101562001ab5576002600086838151811062001a665762001a6662002073565b6020908102919091018101516001600160a01b031682528101919091526040016000206003015460ff1662001aa057506000949350505050565b8062001aac8162002089565b91505062001a44565b50909392505050565b60085460009060019060ff1662001ad85750600062001894565b6001600160a01b03831660009081526004602052604090206003015460ff16620018945750600092915050565b600062000b98828462002258565b508054600082559060005260206000209081019062001b33919062001c6a565b50565b611060806200227c83390190565b82805462001b529062002205565b90600052602060002090601f01602090048101928262001b76576000855562001bc1565b82601f1062001b9157805160ff191683800117855562001bc1565b8280016001018555821562001bc1579182015b8281111562001bc157825182559160200191906001019062001ba4565b5062001bcf92915062001c6a565b5090565b50805462001be19062002205565b6000825580601f1062001bf2575050565b601f01602090049060005260206000209081019062001b33919062001c6a565b82805482825590600052602060002090810192821562001bc1579160200282015b8281111562001bc157825182546001600160a01b0319166001600160a01b0390911617825560209092019160019091019062001c33565b5b8082111562001bcf576000815560010162001c6b565b6001600160a01b038116811462001b3357600080fd5b634e487b7160e01b600052604160045260246000fd5b604051601f8201601f1916810167ffffffffffffffff8111828210171562001cd95762001cd962001c97565b604052919050565b600067ffffffffffffffff82111562001cfe5762001cfe62001c97565b5060051b60200190565b600082601f83011262001d1a57600080fd5b8135602062001d3362001d2d8362001ce1565b62001cad565b82815260059290921b8401810191818101908684111562001d5357600080fd5b8286015b8481101562001d7b57803562001d6d8162001c81565b835291830191830162001d57565b509695505050505050565b6000806040838503121562001d9a57600080fd5b823562001da78162001c81565b9150602083013567ffffffffffffffff81111562001dc457600080fd5b62001dd28582860162001d08565b9150509250929050565b6000806040838503121562001df057600080fd5b823562001dfd8162001c81565b946020939093013593505050565b60006020828403121562001e1e57600080fd5b813562000b988162001c81565b6000806040838503121562001e3f57600080fd5b823562001e4c8162001c81565b9150602083013562001e5e8162001c81565b809150509250929050565b60006020828403121562001e7c57600080fd5b5035919050565b60006020828403121562001e9657600080fd5b8135801515811462000b9857600080fd5b60008060006060848603121562001ebd57600080fd5b833562001eca8162001c81565b9250602084013562001edc8162001c81565b9150604084013562001eee8162001c81565b809150509250925092565b60006020828403121562001f0c57600080fd5b813567ffffffffffffffff81111562001f2457600080fd5b62001f328482850162001d08565b949350505050565b6020808252825182820181905260009190848201906040850190845b8181101562001f7d5783516001600160a01b03168352928401929184019160010162001f56565b50909695505050505050565b60008060006060848603121562001f9f57600080fd5b833562001fac8162001c81565b95602085013595506040909401359392505050565b60005b8381101562001fde57818101518382015260200162001fc4565b83811115620009ce5750506000910152565b60018060a01b03851681528360208201526080604082015260008351806080840152620020258160a085016020880162001fc1565b921515606083015250601f91909101601f19160160a0019392505050565b634e487b7160e01b600052601160045260246000fd5b6000828210156200206e576200206e62002043565b500390565b634e487b7160e01b600052603260045260246000fd5b6000600019821415620020a057620020a062002043565b5060010190565b600060208284031215620020ba57600080fd5b5051919050565b600060208284031215620020d457600080fd5b815167ffffffffffffffff80821115620020ed57600080fd5b818401915084601f8301126200210257600080fd5b81518181111562002117576200211762001c97565b6200212c601f8201601f191660200162001cad565b91508082528560208285010111156200214457600080fd5b6200215781602084016020860162001fc1565b50949350505050565b600060208083850312156200217457600080fd5b825167ffffffffffffffff8111156200218c57600080fd5b8301601f810185136200219e57600080fd5b8051620021af62001d2d8262001ce1565b81815260059190911b82018301908381019087831115620021cf57600080fd5b928401925b82841015620021fa578351620021ea8162001c81565b82529284019290840190620021d4565b979650505050505050565b600181811c908216806200221a57607f821691505b602082108114156200223c57634e487b7160e01b600052602260045260246000fd5b50919050565b634e487b7160e01b600052603160045260246000fd5b6000826200227657634e487b7160e01b600052601260045260246000fd5b50049056fe6080604052610e10600c55670de0b6b3a7640000600d5534801561002257600080fd5b50604051611060380380611060833981016040819052610041916100d3565b6001600160a01b038316610069577310ed43c718714eb63d5aa57b78b54704e256024e61006b565b825b600380546001600160a01b03199081166001600160a01b039384161790915560008054339083161790556001805482169483169490941790935560028054909316911617905550610116565b80516001600160a01b03811681146100ce57600080fd5b919050565b6000806000606084860312156100e857600080fd5b6100f1846100b7565b92506100ff602085016100b7565b915061010d604085016100b7565b90509250925092565b610f3b806101256000396000f3fe6080604052600436106101095760003560e01c8063997664d711610095578063e2d2e21911610064578063e2d2e219146102d9578063efca2eed146102ef578063f0fc6bca14610305578063ffb2c4791461031a578063ffd49c841461033a57600080fd5b8063997664d71461022e578063abd3775314610244578063ce7c2ac21461027a578063d0e30db0146102d157600080fd5b80633a98ef39116100dc5780633a98ef39146101a657806341ca641e146101bc5780634b2c8998146101de5780634fab0ae8146101f35780637578a1d91461020957600080fd5b806311ce023d1461010e57806314b6ca961461014457806328fd3198146101665780632d48e89614610186575b600080fd5b34801561011a57600080fd5b506101316ec097ce7bc90715b34b9f100000000081565b6040519081526020015b60405180910390f35b34801561015057600080fd5b5061016461015f366004610cf1565b610350565b005b34801561017257600080fd5b50610131610181366004610d1b565b6104c8565b34801561019257600080fd5b506101646101a1366004610d36565b610551565b3480156101b257600080fd5b5061013160085481565b3480156101c857600080fd5b506101d1610573565b60405161013b9190610d9c565b3480156101ea57600080fd5b506101646105ed565b3480156101ff57600080fd5b50610131600d5481565b34801561021557600080fd5b5032600090815260076020526040902060020154610131565b34801561023a57600080fd5b5061013160095481565b34801561025057600080fd5b5061013161025f366004610d1b565b6001600160a01b031660009081526007602052604090205490565b34801561028657600080fd5b506102b6610295366004610d1b565b60076020526000908152604090208054600182015460029092015490919083565b6040805193845260208401929092529082015260600161013b565b6101646106bf565b3480156102e557600080fd5b50610131600b5481565b3480156102fb57600080fd5b50610131600a5481565b34801561031157600080fd5b50610164610918565b34801561032657600080fd5b50610164610335366004610daf565b610921565b34801561034657600080fd5b50610131600c5481565b6000546001600160a01b0316331461036757600080fd5b6001600160a01b0382166000908152600760205260409020541561038e5761038e826109ed565b6000811180156103b457506001600160a01b038216600090815260076020526040902054155b1561041a57600480546001600160a01b0384166000818152600560205260408120839055600183018455929092527f8a35acfbc15ff81a39ae7d344fd709f28e8600b4aa8c65c6b64bfe7fe36bd19b0180546001600160a01b031916909117905561044d565b8015801561043f57506001600160a01b03821660009081526007602052604090205415155b1561044d5761044d82610b14565b6001600160a01b03821660009081526007602052604090205460085461047e91839161047891610c29565b90610c3c565b6008556001600160a01b03821660009081526007602052604090208190556104a581610c48565b6001600160a01b0390921660009081526007602052604090206001019190915550565b6001600160a01b0381166000908152600760205260408120546104ed57506000919050565b6001600160a01b03821660009081526007602052604081205461050f90610c48565b6001600160a01b03841660009081526007602052604090206001015490915080821161053f575060009392505050565b6105498282610c29565b949350505050565b6000546001600160a01b0316331461056857600080fd5b600c91909155600d55565b6000546060906001600160a01b0316331461058d57600080fd5b60048054806020026020016040519081016040528092919081815260200182805480156105e357602002820191906000526020600020905b81546001600160a01b031681526001909101906020018083116105c5575b5050505050905090565b6000546001600160a01b0316331461060457600080fd5b6004548061060f5750565b60005b818110156106ba5781600e5410610629576000600e555b61065b6004600e548154811061064157610641610dc8565b6000918252602090912001546001600160a01b0316610c78565b15610692576106926004600e548154811061067857610678610dc8565b6000918252602090912001546001600160a01b03166109ed565b600e80549060006106a283610df4565b919050555080806106b290610df4565b915050610612565b50505b565b6000546001600160a01b031633146106d657600080fd5b6001546040516370a0823160e01b81523060048201526000916001600160a01b0316906370a082319060240160206040518083038186803b15801561071a57600080fd5b505afa15801561072e573d6000803e3d6000fd5b505050506040513d601f19601f820116820180604052508101906107529190610e0f565b6040805160028082526060820183529293506000929091602083019080368337505060025482519293506001600160a01b03169183915060009061079857610798610dc8565b6001600160a01b03928316602091820292909201015260018054835192169183919081106107c8576107c8610dc8565b6001600160a01b03928316602091820292909201015260035460405163b6f9de9560e01b815291169063b6f9de9590349061080e90600090869030904290600401610e28565b6000604051808303818588803b15801561082757600080fd5b505af115801561083b573d6000803e3d6000fd5b50506001546040516370a0823160e01b8152306004820152600094506108ca93508692506001600160a01b03909116906370a082319060240160206040518083038186803b15801561088c57600080fd5b505afa1580156108a0573d6000803e3d6000fd5b505050506040513d601f19601f820116820180604052508101906108c49190610e0f565b90610c29565b6009549091506108da9082610c3c565b60095560085461091090610907906109016ec097ce7bc90715b34b9f100000000085610cbd565b90610cc9565b600b5490610c3c565b600b55505050565b6106bd326109ed565b6000546001600160a01b0316331461093857600080fd5b60045480610944575050565b6000805a905060005b848310801561095b57508381105b156109e65783600e541061096f576000600e555b6109876004600e548154811061064157610641610dc8565b156109a4576109a46004600e548154811061067857610678610dc8565b6109b96109b25a8490610c29565b8490610c3c565b92505a600e805491935060006109ce83610df4565b919050555080806109de90610df4565b91505061094d565b5050505050565b6001600160a01b038116600090815260076020526040902054610a0d5750565b6000610a18826104c8565b905080156106ba57600a54610a2d9082610c3c565b600a5560015460405163a9059cbb60e01b81526001600160a01b038481166004830152602482018490529091169063a9059cbb90604401602060405180830381600087803b158015610a7e57600080fd5b505af1158015610a92573d6000803e3d6000fd5b505050506040513d601f19601f82011682018060405250810190610ab69190610e5d565b506001600160a01b03821660009081526006602090815260408083204290556007909152902060020154610aea9082610c3c565b6001600160a01b03831660009081526007602052604090206002810191909155546104a590610c48565b60048054610b2490600190610e7f565b81548110610b3457610b34610dc8565b60009182526020808320909101546001600160a01b0384811684526005909252604090922054600480549290931692918110610b7257610b72610dc8565b600091825260208083209190910180546001600160a01b0319166001600160a01b03948516179055918316815260059182905260408120546004805491939291610bbe90600190610e7f565b81548110610bce57610bce610dc8565b60009182526020808320909101546001600160a01b031683528201929092526040019020556004805480610c0457610c04610e96565b600082815260209020810160001990810180546001600160a01b031916905501905550565b6000610c358284610e7f565b9392505050565b6000610c358284610eac565b6000610c726ec097ce7bc90715b34b9f1000000000610901600b5485610cbd90919063ffffffff16565b92915050565b600c546001600160a01b03821660009081526006602052604081205490914291610ca29190610eac565b108015610c725750600d54610cb6836104c8565b1192915050565b6000610c358284610ec4565b6000610c358284610ee3565b80356001600160a01b0381168114610cec57600080fd5b919050565b60008060408385031215610d0457600080fd5b610d0d83610cd5565b946020939093013593505050565b600060208284031215610d2d57600080fd5b610c3582610cd5565b60008060408385031215610d4957600080fd5b50508035926020909101359150565b600081518084526020808501945080840160005b83811015610d915781516001600160a01b031687529582019590820190600101610d6c565b509495945050505050565b602081526000610c356020830184610d58565b600060208284031215610dc157600080fd5b5035919050565b634e487b7160e01b600052603260045260246000fd5b634e487b7160e01b600052601160045260246000fd5b6000600019821415610e0857610e08610dde565b5060010190565b600060208284031215610e2157600080fd5b5051919050565b848152608060208201526000610e416080830186610d58565b6001600160a01b03949094166040830152506060015292915050565b600060208284031215610e6f57600080fd5b81518015158114610c3557600080fd5b600082821015610e9157610e91610dde565b500390565b634e487b7160e01b600052603160045260246000fd5b60008219821115610ebf57610ebf610dde565b500190565b6000816000190483118215151615610ede57610ede610dde565b500290565b600082610f0057634e487b7160e01b600052601260045260246000fd5b50049056fea264697066735822122085e963b093a2469377deacaea81345c07699f9ea24f621abf5f60b90d5b485b164736f6c63430008090033a264697066735822122015c047a2d1994eb32a04063104c1625cc5f8dee12fc62ce34ed8cfa8d42c0b6064736f6c63430008090033",
  "linkReferences": {},
  "deployedLinkReferences": {}
}